{
  "_format": "hh-sol-artifact-1",
  "contractName": "MotifyToken",
  "sourceName": "contracts/MotifyToken.sol",
  "abi": [
    {
      "inputs": [
        {
          "internalType": "address",
          "name": "_motify",
          "type": "address"
        }
      ],
      "stateMutability": "nonpayable",
      "type": "constructor"
    },
    {
      "inputs": [
        {
          "internalType": "address",
          "name": "spender",
          "type": "address"
        },
        {
          "internalType": "uint256",
          "name": "allowance",
          "type": "uint256"
        },
        {
          "internalType": "uint256",
          "name": "needed",
          "type": "uint256"
        }
      ],
      "name": "ERC20InsufficientAllowance",
      "type": "error"
    },
    {
      "inputs": [
        {
          "internalType": "address",
          "name": "sender",
          "type": "address"
        },
        {
          "internalType": "uint256",
          "name": "balance",
          "type": "uint256"
        },
        {
          "internalType": "uint256",
          "name": "needed",
          "type": "uint256"
        }
      ],
      "name": "ERC20InsufficientBalance",
      "type": "error"
    },
    {
      "inputs": [
        {
          "internalType": "address",
          "name": "approver",
          "type": "address"
        }
      ],
      "name": "ERC20InvalidApprover",
      "type": "error"
    },
    {
      "inputs": [
        {
          "internalType": "address",
          "name": "receiver",
          "type": "address"
        }
      ],
      "name": "ERC20InvalidReceiver",
      "type": "error"
    },
    {
      "inputs": [
        {
          "internalType": "address",
          "name": "sender",
          "type": "address"
        }
      ],
      "name": "ERC20InvalidSender",
      "type": "error"
    },
    {
      "inputs": [
        {
          "internalType": "address",
          "name": "spender",
          "type": "address"
        }
      ],
      "name": "ERC20InvalidSpender",
      "type": "error"
    },
    {
      "anonymous": false,
      "inputs": [
        {
          "indexed": true,
          "internalType": "address",
          "name": "owner",
          "type": "address"
        },
        {
          "indexed": true,
          "internalType": "address",
          "name": "spender",
          "type": "address"
        },
        {
          "indexed": false,
          "internalType": "uint256",
          "name": "value",
          "type": "uint256"
        }
      ],
      "name": "Approval",
      "type": "event"
    },
    {
      "anonymous": false,
      "inputs": [
        {
          "indexed": true,
          "internalType": "address",
          "name": "from",
          "type": "address"
        },
        {
          "indexed": true,
          "internalType": "address",
          "name": "to",
          "type": "address"
        },
        {
          "indexed": false,
          "internalType": "uint256",
          "name": "value",
          "type": "uint256"
        }
      ],
      "name": "Transfer",
      "type": "event"
    },
    {
      "inputs": [
        {
          "internalType": "address",
          "name": "owner",
          "type": "address"
        },
        {
          "internalType": "address",
          "name": "spender",
          "type": "address"
        }
      ],
      "name": "allowance",
      "outputs": [
        {
          "internalType": "uint256",
          "name": "",
          "type": "uint256"
        }
      ],
      "stateMutability": "view",
      "type": "function"
    },
    {
      "inputs": [
        {
          "internalType": "address",
          "name": "spender",
          "type": "address"
        },
        {
          "internalType": "uint256",
          "name": "value",
          "type": "uint256"
        }
      ],
      "name": "approve",
      "outputs": [
        {
          "internalType": "bool",
          "name": "",
          "type": "bool"
        }
      ],
      "stateMutability": "nonpayable",
      "type": "function"
    },
    {
      "inputs": [
        {
          "internalType": "address",
          "name": "account",
          "type": "address"
        }
      ],
      "name": "balanceOf",
      "outputs": [
        {
          "internalType": "uint256",
          "name": "",
          "type": "uint256"
        }
      ],
      "stateMutability": "view",
      "type": "function"
    },
    {
      "inputs": [
        {
          "internalType": "address",
          "name": "from",
          "type": "address"
        },
        {
          "internalType": "uint256",
          "name": "amount",
          "type": "uint256"
        }
      ],
      "name": "burn",
      "outputs": [],
      "stateMutability": "nonpayable",
      "type": "function"
    },
    {
      "inputs": [],
      "name": "decimals",
      "outputs": [
        {
          "internalType": "uint8",
          "name": "",
          "type": "uint8"
        }
      ],
      "stateMutability": "view",
      "type": "function"
    },
    {
      "inputs": [
        {
          "internalType": "address",
          "name": "to",
          "type": "address"
        },
        {
          "internalType": "uint256",
          "name": "amount",
          "type": "uint256"
        }
      ],
      "name": "mint",
      "outputs": [],
      "stateMutability": "nonpayable",
      "type": "function"
    },
    {
      "inputs": [
        {
          "internalType": "uint256",
          "name": "amount",
          "type": "uint256"
        }
      ],
      "name": "mintForTesting",
      "outputs": [],
      "stateMutability": "nonpayable",
      "type": "function"
    },
    {
      "inputs": [],
      "name": "motify",
      "outputs": [
        {
          "internalType": "address",
          "name": "",
          "type": "address"
        }
      ],
      "stateMutability": "view",
      "type": "function"
    },
    {
      "inputs": [],
      "name": "name",
      "outputs": [
        {
          "internalType": "string",
          "name": "",
          "type": "string"
        }
      ],
      "stateMutability": "view",
      "type": "function"
    },
    {
      "inputs": [],
      "name": "owner",
      "outputs": [
        {
          "internalType": "address",
          "name": "",
          "type": "address"
        }
      ],
      "stateMutability": "view",
      "type": "function"
    },
    {
      "inputs": [],
      "name": "symbol",
      "outputs": [
        {
          "internalType": "string",
          "name": "",
          "type": "string"
        }
      ],
      "stateMutability": "view",
      "type": "function"
    },
    {
      "inputs": [],
      "name": "totalSupply",
      "outputs": [
        {
          "internalType": "uint256",
          "name": "",
          "type": "uint256"
        }
      ],
      "stateMutability": "view",
      "type": "function"
    },
    {
      "inputs": [
        {
          "internalType": "address",
          "name": "to",
          "type": "address"
        },
        {
          "internalType": "uint256",
          "name": "value",
          "type": "uint256"
        }
      ],
      "name": "transfer",
      "outputs": [
        {
          "internalType": "bool",
          "name": "",
          "type": "bool"
        }
      ],
      "stateMutability": "nonpayable",
      "type": "function"
    },
    {
      "inputs": [
        {
          "internalType": "address",
          "name": "from",
          "type": "address"
        },
        {
          "internalType": "address",
          "name": "to",
          "type": "address"
        },
        {
          "internalType": "uint256",
          "name": "value",
          "type": "uint256"
        }
      ],
      "name": "transferFrom",
      "outputs": [
        {
          "internalType": "bool",
          "name": "",
          "type": "bool"
        }
      ],
      "stateMutability": "nonpayable",
      "type": "function"
    }
  ],
  "bytecode": "0x60c034620003bb57601f1990601f906001600160401b0362000da2388190038481018616840183811185821017620002bf57849282916040528339602093849181010312620003bb5751936001600160a01b03851691828603620003bb5762000067620003c0565b94600c86526b26b7ba34b33c902a37b5b2b760a11b858701526200008a620003c0565b9560068752654d4f5449465960d01b86880152805191838311620002bf5760039283546001938482811c92168015620003b0575b8a8310146200039a57818484931162000344575b508990848311600114620002e157600092620002d5575b505060001982861b1c191690831b1783555b8751938411620002bf5760049788548381811c91168015620002b4575b898210146200029f5782811162000254575b5087918511600114620001eb5784955090849291600095620001df575b50501b92600019911b1c19161783555b156200019c57826080523360a0526040516109c19081620003e18239608051818181610168015281816103f701526105ca015260a05181818161036f01526104510152f35b60405162461bcd60e51b815291820152601d60248201527f4d6f7469667920616464726573732063616e6e6f74206265207a65726f000000604482015260649150fd5b01519350388062000147565b9291948416928860005284886000209460005b8a898383106200023c575050501062000221575b50505050811b01835562000157565b01519060f884600019921b161c191690553880808062000212565b868601518955909701969485019488935001620001fe565b89600052886000208380880160051c8201928b891062000295575b0160051c019084905b828110620002885750506200012a565b6000815501849062000278565b925081926200026f565b60228a634e487b7160e01b6000525260246000fd5b90607f169062000118565b634e487b7160e01b600052604160045260246000fd5b015190503880620000e9565b908886941691876000528b6000209260005b8d8282106200032d575050841162000314575b505050811b018355620000fb565b015160001983881b60f8161c1916905538808062000306565b8385015186558997909501949384019301620002f3565b90915085600052896000208480850160051c8201928c861062000390575b918791869594930160051c01915b82811062000380575050620000d2565b6000815585945087910162000370565b9250819262000362565b634e487b7160e01b600052602260045260246000fd5b91607f1691620000be565b600080fd5b60408051919082016001600160401b03811183821017620002bf5760405256fe608060408181526004918236101561001657600080fd5b600092833560e01c91826306fdde03146106a757508163095ea7b3146105f9578163109dcbe2146105b557816318160ddd1461059657816323b872dd146104a2578163313ce56714610486578163378d058d1461043457816340c10f19146103d557816370a082311461039e5781638da5cb5b1461035a57816395d89b411461023b5781639dc29fac1461013a57508063a9059cbb1461010a5763dd62ed3e146100bf57600080fd5b34610106578060031936011261010657806020926100db6107c8565b6100e36107e3565b6001600160a01b0391821683526001865283832091168252845220549051908152f35b5080fd5b50346101065780600319360112610106576020906101336101296107c8565b60243590336107f9565b5160018152f35b839150346101065782600319360112610106576101556107c8565b90602435906001600160a01b0361018f337f00000000000000000000000000000000000000000000000000000000000000008316146108d7565b8316928315610224578385528460205285852054918383106101f05750508184957fddf252ad1be2c89b69c2b068fc378daa952ba7f163c4a11628f55a4df523b3ef936020938688528785520381872055816002540360025551908152a380f35b865163391434e360e21b81526001600160a01b03909216908201908152602081018390526040810184905281906060010390fd5b8551634b637e8f60e11b8152808301869052602490fd5b838334610106578160031936011261010657805190828454600181811c90808316928315610350575b602093848410811461033d5783885290811561032157506001146102cc575b505050829003601f01601f191682019267ffffffffffffffff8411838510176102b957508291826102b592528261077f565b0390f35b634e487b7160e01b815260418552602490fd5b8787529192508591837f8a35acfbc15ff81a39ae7d344fd709f28e8600b4aa8c65c6b64bfe7fe36bd19b5b83851061030d5750505050830101858080610283565b8054888601830152930192849082016102f7565b60ff1916878501525050151560051b8401019050858080610283565b634e487b7160e01b895260228a52602489fd5b91607f1691610264565b505034610106578160031936011261010657517f00000000000000000000000000000000000000000000000000000000000000006001600160a01b03168152602090f35b5050346101065760203660031901126101065760209181906001600160a01b036103c66107c8565b16815280845220549051908152f35b505034610106573660031901126104315761042e6103f16107c8565b610425337f00000000000000000000000000000000000000000000000000000000000000006001600160a01b0316146108d7565b60243590610914565b80f35b80fd5b8390346101065760203660031901126101065761042e9061047f337f00000000000000000000000000000000000000000000000000000000000000006001600160a01b0316146108d7565b3533610914565b5050346101065781600319360112610106576020905160128152f35b90508234610431576060366003190112610431576104be6107c8565b6104c66107e3565b916044359360018060a01b038316808352600160205286832033845260205286832054916000198310610502575b6020886101338989896107f9565b86831061056a57811561055357331561053c57508252600160209081528683203384528152918690209085900390558290610133876104f4565b8751634a1406b160e11b8152908101849052602490fd5b875163e602df0560e01b8152908101849052602490fd5b8751637dc7a0d960e11b8152339181019182526020820193909352604081018790528291506060010390fd5b5050346101065781600319360112610106576020906002549051908152f35b505034610106578160031936011261010657517f00000000000000000000000000000000000000000000000000000000000000006001600160a01b03168152602090f35b9050346106a357816003193601126106a3576106136107c8565b60243590331561068c576001600160a01b031691821561067557508083602095338152600187528181208582528752205582519081527f8c5be1e5ebec7d5bd14f71427d1e84f3dd0314c0f7b2291e5b200ac8c7c3b925843392a35160018152f35b8351634a1406b160e11b8152908101859052602490fd5b835163e602df0560e01b8152808401869052602490fd5b8280fd5b849084346106a357826003193601126106a35782600354600181811c90808316928315610775575b602093848410811461033d57838852908115610321575060011461071f57505050829003601f01601f191682019267ffffffffffffffff8411838510176102b957508291826102b592528261077f565b600387529192508591837fc2575a0e9e593c00f959f8c92f12db2869c3395a3b0502d05e2516446f71f85b5b8385106107615750505050830101858080610283565b80548886018301529301928490820161074b565b91607f16916106cf565b6020808252825181830181905290939260005b8281106107b457505060409293506000838284010152601f8019910116010190565b818101860151848201604001528501610792565b600435906001600160a01b03821682036107de57565b600080fd5b602435906001600160a01b03821682036107de57565b916001600160a01b038084169283156108be57169283156108a55760009083825281602052604082205490838210610873575091604082827fddf252ad1be2c89b69c2b068fc378daa952ba7f163c4a11628f55a4df523b3ef958760209652828652038282205586815220818154019055604051908152a3565b60405163391434e360e21b81526001600160a01b03919091166004820152602481019190915260448101839052606490fd5b60405163ec442f0560e01b815260006004820152602490fd5b604051634b637e8f60e11b815260006004820152602490fd5b156108de57565b60405162461bcd60e51b815260206004820152600e60248201526d139bdd08185d5d1a1bdc9a5e995960921b6044820152606490fd5b6001600160a01b03169081156108a557600254908082018092116109755760207fddf252ad1be2c89b69c2b068fc378daa952ba7f163c4a11628f55a4df523b3ef9160009360025584845283825260408420818154019055604051908152a3565b634e487b7160e01b600052601160045260246000fdfea2646970667358221220a5fd5bff695472ed81ec5789b1bafa599b9013d490d4d6fde2fedae1dba0568264736f6c63430008140033",
  "linkReferences": {},
  "deployedLinkReferences": {}
}