{
  "_format": "hh-sol-artifact-1",
  "contractName": "MotifyToken",
  "sourceName": "contracts/MotifyToken.sol",
  "abi": [
    {
      "inputs": [
        {
          "internalType": "address",
          "name": "_motify",
          "type": "address"
        }
      ],
      "stateMutability": "nonpayable",
      "type": "constructor"
    },
    {
      "inputs": [
        {
          "internalType": "address",
          "name": "spender",
          "type": "address"
        },
        {
          "internalType": "uint256",
          "name": "allowance",
          "type": "uint256"
        },
        {
          "internalType": "uint256",
          "name": "needed",
          "type": "uint256"
        }
      ],
      "name": "ERC20InsufficientAllowance",
      "type": "error"
    },
    {
      "inputs": [
        {
          "internalType": "address",
          "name": "sender",
          "type": "address"
        },
        {
          "internalType": "uint256",
          "name": "balance",
          "type": "uint256"
        },
        {
          "internalType": "uint256",
          "name": "needed",
          "type": "uint256"
        }
      ],
      "name": "ERC20InsufficientBalance",
      "type": "error"
    },
    {
      "inputs": [
        {
          "internalType": "address",
          "name": "approver",
          "type": "address"
        }
      ],
      "name": "ERC20InvalidApprover",
      "type": "error"
    },
    {
      "inputs": [
        {
          "internalType": "address",
          "name": "receiver",
          "type": "address"
        }
      ],
      "name": "ERC20InvalidReceiver",
      "type": "error"
    },
    {
      "inputs": [
        {
          "internalType": "address",
          "name": "sender",
          "type": "address"
        }
      ],
      "name": "ERC20InvalidSender",
      "type": "error"
    },
    {
      "inputs": [
        {
          "internalType": "address",
          "name": "spender",
          "type": "address"
        }
      ],
      "name": "ERC20InvalidSpender",
      "type": "error"
    },
    {
      "anonymous": false,
      "inputs": [
        {
          "indexed": true,
          "internalType": "address",
          "name": "owner",
          "type": "address"
        },
        {
          "indexed": true,
          "internalType": "address",
          "name": "spender",
          "type": "address"
        },
        {
          "indexed": false,
          "internalType": "uint256",
          "name": "value",
          "type": "uint256"
        }
      ],
      "name": "Approval",
      "type": "event"
    },
    {
      "anonymous": false,
      "inputs": [
        {
          "indexed": true,
          "internalType": "address",
          "name": "from",
          "type": "address"
        },
        {
          "indexed": false,
          "internalType": "uint256",
          "name": "amount",
          "type": "uint256"
        }
      ],
      "name": "Burn",
      "type": "event"
    },
    {
      "anonymous": false,
      "inputs": [
        {
          "indexed": true,
          "internalType": "address",
          "name": "to",
          "type": "address"
        },
        {
          "indexed": false,
          "internalType": "uint256",
          "name": "amount",
          "type": "uint256"
        }
      ],
      "name": "Mint",
      "type": "event"
    },
    {
      "anonymous": false,
      "inputs": [
        {
          "indexed": true,
          "internalType": "address",
          "name": "from",
          "type": "address"
        },
        {
          "indexed": true,
          "internalType": "address",
          "name": "to",
          "type": "address"
        },
        {
          "indexed": false,
          "internalType": "uint256",
          "name": "value",
          "type": "uint256"
        }
      ],
      "name": "Transfer",
      "type": "event"
    },
    {
      "inputs": [
        {
          "internalType": "address",
          "name": "owner",
          "type": "address"
        },
        {
          "internalType": "address",
          "name": "spender",
          "type": "address"
        }
      ],
      "name": "allowance",
      "outputs": [
        {
          "internalType": "uint256",
          "name": "",
          "type": "uint256"
        }
      ],
      "stateMutability": "view",
      "type": "function"
    },
    {
      "inputs": [
        {
          "internalType": "address",
          "name": "spender",
          "type": "address"
        },
        {
          "internalType": "uint256",
          "name": "value",
          "type": "uint256"
        }
      ],
      "name": "approve",
      "outputs": [
        {
          "internalType": "bool",
          "name": "",
          "type": "bool"
        }
      ],
      "stateMutability": "nonpayable",
      "type": "function"
    },
    {
      "inputs": [
        {
          "internalType": "address",
          "name": "account",
          "type": "address"
        }
      ],
      "name": "balanceOf",
      "outputs": [
        {
          "internalType": "uint256",
          "name": "",
          "type": "uint256"
        }
      ],
      "stateMutability": "view",
      "type": "function"
    },
    {
      "inputs": [
        {
          "internalType": "address",
          "name": "from",
          "type": "address"
        },
        {
          "internalType": "uint256",
          "name": "amount",
          "type": "uint256"
        }
      ],
      "name": "burn",
      "outputs": [],
      "stateMutability": "nonpayable",
      "type": "function"
    },
    {
      "inputs": [],
      "name": "decimals",
      "outputs": [
        {
          "internalType": "uint8",
          "name": "",
          "type": "uint8"
        }
      ],
      "stateMutability": "view",
      "type": "function"
    },
    {
      "inputs": [
        {
          "internalType": "address",
          "name": "to",
          "type": "address"
        },
        {
          "internalType": "uint256",
          "name": "amount",
          "type": "uint256"
        }
      ],
      "name": "mint",
      "outputs": [],
      "stateMutability": "nonpayable",
      "type": "function"
    },
    {
      "inputs": [],
      "name": "motify",
      "outputs": [
        {
          "internalType": "address",
          "name": "",
          "type": "address"
        }
      ],
      "stateMutability": "view",
      "type": "function"
    },
    {
      "inputs": [],
      "name": "name",
      "outputs": [
        {
          "internalType": "string",
          "name": "",
          "type": "string"
        }
      ],
      "stateMutability": "view",
      "type": "function"
    },
    {
      "inputs": [],
      "name": "symbol",
      "outputs": [
        {
          "internalType": "string",
          "name": "",
          "type": "string"
        }
      ],
      "stateMutability": "view",
      "type": "function"
    },
    {
      "inputs": [],
      "name": "totalSupply",
      "outputs": [
        {
          "internalType": "uint256",
          "name": "",
          "type": "uint256"
        }
      ],
      "stateMutability": "view",
      "type": "function"
    },
    {
      "inputs": [
        {
          "internalType": "address",
          "name": "to",
          "type": "address"
        },
        {
          "internalType": "uint256",
          "name": "value",
          "type": "uint256"
        }
      ],
      "name": "transfer",
      "outputs": [
        {
          "internalType": "bool",
          "name": "",
          "type": "bool"
        }
      ],
      "stateMutability": "nonpayable",
      "type": "function"
    },
    {
      "inputs": [
        {
          "internalType": "address",
          "name": "from",
          "type": "address"
        },
        {
          "internalType": "address",
          "name": "to",
          "type": "address"
        },
        {
          "internalType": "uint256",
          "name": "value",
          "type": "uint256"
        }
      ],
      "name": "transferFrom",
      "outputs": [
        {
          "internalType": "bool",
          "name": "",
          "type": "bool"
        }
      ],
      "stateMutability": "nonpayable",
      "type": "function"
    }
  ],
  "bytecode": "0x60a034620003a757601f1990601f906001600160401b0362000d35388190038481018616840183811185821017620002ab57849282916040528339602093849181010312620003a75751936001600160a01b03851691828603620003a75762000067620003ac565b94600c86526b26b7ba34b33c902a37b5b2b760a11b858701526200008a620003ac565b9560068752654d4f5449465960d01b86880152805191838311620002ab5760039283546001938482811c921680156200039c575b8a8310146200038657818484931162000330575b508990848311600114620002cd57600092620002c1575b505060001982861b1c191690831b1783555b8751938411620002ab5760049788548381811c91168015620002a0575b898210146200028b5782811162000240575b5087918511600114620001d75784955090849291600095620001cb575b50501b92600019911b1c19161783555b156200018857826080526040516109689081620003cd8239608051818181610151015281816103d501526105ec0152f35b60405162461bcd60e51b815291820152601d60248201527f4d6f7469667920616464726573732063616e6e6f74206265207a65726f000000604482015260649150fd5b01519350388062000147565b9291948416928860005284886000209460005b8a898383106200022857505050106200020d575b50505050811b01835562000157565b01519060f884600019921b161c1916905538808080620001fe565b868601518955909701969485019488935001620001ea565b89600052886000208380880160051c8201928b891062000281575b0160051c019084905b828110620002745750506200012a565b6000815501849062000264565b925081926200025b565b60228a634e487b7160e01b6000525260246000fd5b90607f169062000118565b634e487b7160e01b600052604160045260246000fd5b015190503880620000e9565b908886941691876000528b6000209260005b8d82821062000319575050841162000300575b505050811b018355620000fb565b015160001983881b60f8161c19169055388080620002f2565b8385015186558997909501949384019301620002df565b90915085600052896000208480850160051c8201928c86106200037c575b918791869594930160051c01915b8281106200036c575050620000d2565b600081558594508791016200035c565b925081926200034e565b634e487b7160e01b600052602260045260246000fd5b91607f1691620000be565b600080fd5b60408051919082016001600160401b03811183821017620002ab5760405256fe608060408181526004918236101561001657600080fd5b600092833560e01c91826306fdde03146106c557508163095ea7b31461061b578163109dcbe2146105d757816318160ddd146105b857816323b872dd146104c1578163313ce567146104a557816340c10f19146103a657816370a082311461036f57816395d89b41146102505781639dc29fac1461012457508063a9059cbb146100f45763dd62ed3e146100a957600080fd5b346100f057806003193601126100f057806020926100c56107e6565b6100cd610801565b6001600160a01b0391821683526001865283832091168252845220549051908152f35b5080fd5b50346100f057806003193601126100f05760209061011d6101136107e6565b6024359033610817565b5160018152f35b90503461024c578160031936011261024c5761013e6107e6565b91602435916001600160a01b03610178337f00000000000000000000000000000000000000000000000000000000000000008316146108f5565b84169384156102365784865285602052828620549184831061020257505091602091817fcc16f5dbb4873280815c1ee09dbd06736cffcc184412cf7a71a0fdb75d397ca5948688528785520381872055816002540360025585857fddf252ad1be2c89b69c2b068fc378daa952ba7f163c4a11628f55a4df523b3ef858451868152a351908152a280f35b835163391434e360e21b81526001600160a01b03909216908201908152602081018390526040810185905281906060010390fd5b50846024925191634b637e8f60e11b8352820152fd5b8280fd5b8383346100f057816003193601126100f057805190828454600181811c90808316928315610365575b60209384841081146103525783885290811561033657506001146102e1575b505050829003601f01601f191682019267ffffffffffffffff8411838510176102ce57508291826102ca92528261079d565b0390f35b634e487b7160e01b815260418552602490fd5b8787529192508591837f8a35acfbc15ff81a39ae7d344fd709f28e8600b4aa8c65c6b64bfe7fe36bd19b5b8385106103225750505050830101858080610298565b80548886018301529301928490820161030c565b60ff1916878501525050151560051b8401019050858080610298565b634e487b7160e01b895260228a52602489fd5b91607f1691610279565b5050346100f05760203660031901126100f05760209181906001600160a01b036103976107e6565b16815280845220549051908152f35b9190503461024c578060031936011261024c576103c16107e6565b60243591906001600160a01b03906103fc337f00000000000000000000000000000000000000000000000000000000000000008416146108f5565b16928315610490576002549083820180921161047d5750916020917f0f6798a560793a54c3bcfe86a93cde1e73087d944c0ea20544137d41213968859360025584865285835280862082815401905584867fddf252ad1be2c89b69c2b068fc378daa952ba7f163c4a11628f55a4df523b3ef858451868152a351908152a280f35b634e487b7160e01b865260119052602485fd5b84602492519163ec442f0560e01b8352820152fd5b5050346100f057816003193601126100f0576020905160128152f35b905082346105b55760603660031901126105b5576104dd6107e6565b6104e5610801565b916044359360018060a01b038316808352600160205286832033845260205286832054916000198310610521575b60208861011d898989610817565b86831061058957811561057257331561055b5750825260016020908152868320338452815291869020908590039055829061011d87610513565b8751634a1406b160e11b8152908101849052602490fd5b875163e602df0560e01b8152908101849052602490fd5b8751637dc7a0d960e11b8152339181019182526020820193909352604081018790528291506060010390fd5b80fd5b5050346100f057816003193601126100f0576020906002549051908152f35b5050346100f057816003193601126100f057517f00000000000000000000000000000000000000000000000000000000000000006001600160a01b03168152602090f35b90503461024c578160031936011261024c576106356107e6565b6024359033156106ae576001600160a01b031691821561069757508083602095338152600187528181208582528752205582519081527f8c5be1e5ebec7d5bd14f71427d1e84f3dd0314c0f7b2291e5b200ac8c7c3b925843392a35160018152f35b8351634a1406b160e11b8152908101859052602490fd5b835163e602df0560e01b8152808401869052602490fd5b8490843461024c578260031936011261024c5782600354600181811c90808316928315610793575b602093848410811461035257838852908115610336575060011461073d57505050829003601f01601f191682019267ffffffffffffffff8411838510176102ce57508291826102ca92528261079d565b600387529192508591837fc2575a0e9e593c00f959f8c92f12db2869c3395a3b0502d05e2516446f71f85b5b83851061077f5750505050830101858080610298565b805488860183015293019284908201610769565b91607f16916106ed565b6020808252825181830181905290939260005b8281106107d257505060409293506000838284010152601f8019910116010190565b8181018601518482016040015285016107b0565b600435906001600160a01b03821682036107fc57565b600080fd5b602435906001600160a01b03821682036107fc57565b916001600160a01b038084169283156108dc57169283156108c35760009083825281602052604082205490838210610891575091604082827fddf252ad1be2c89b69c2b068fc378daa952ba7f163c4a11628f55a4df523b3ef958760209652828652038282205586815220818154019055604051908152a3565b60405163391434e360e21b81526001600160a01b03919091166004820152602481019190915260448101839052606490fd5b60405163ec442f0560e01b815260006004820152602490fd5b604051634b637e8f60e11b815260006004820152602490fd5b156108fc57565b60405162461bcd60e51b815260206004820152600e60248201526d139bdd08185d5d1a1bdc9a5e995960921b6044820152606490fdfea26469706673582212201ebb773ad898e8d182aacd1881b1a305ac209fb476bbdfaa20ae89bde7b6d33864736f6c63430008140033",
  "linkReferences": {},
  "deployedLinkReferences": {}
}