{
  "_format": "hh-sol-artifact-1",
  "contractName": "Motify",
  "sourceName": "contracts/Motify.sol",
  "abi": [
    {
      "inputs": [
        {
          "internalType": "address",
          "name": "_usdcAddress",
          "type": "address"
        },
        {
          "internalType": "address",
          "name": "_additionalOwner",
          "type": "address"
        }
      ],
      "stateMutability": "nonpayable",
      "type": "constructor"
    },
    {
      "inputs": [
        {
          "internalType": "address",
          "name": "token",
          "type": "address"
        }
      ],
      "name": "SafeERC20FailedOperation",
      "type": "error"
    },
    {
      "inputs": [],
      "name": "BASIS_POINTS_DIVISOR",
      "outputs": [
        {
          "internalType": "uint256",
          "name": "",
          "type": "uint256"
        }
      ],
      "stateMutability": "view",
      "type": "function"
    },
    {
      "inputs": [],
      "name": "DECIMAL_DIFF",
      "outputs": [
        {
          "internalType": "uint256",
          "name": "",
          "type": "uint256"
        }
      ],
      "stateMutability": "view",
      "type": "function"
    },
    {
      "inputs": [],
      "name": "DECLARATION_TIMEOUT",
      "outputs": [
        {
          "internalType": "uint256",
          "name": "",
          "type": "uint256"
        }
      ],
      "stateMutability": "view",
      "type": "function"
    },
    {
      "inputs": [],
      "name": "FEE_BASIS_POINTS",
      "outputs": [
        {
          "internalType": "uint256",
          "name": "",
          "type": "uint256"
        }
      ],
      "stateMutability": "view",
      "type": "function"
    },
    {
      "inputs": [],
      "name": "FINALIZATION_TIMEOUT",
      "outputs": [
        {
          "internalType": "uint256",
          "name": "",
          "type": "uint256"
        }
      ],
      "stateMutability": "view",
      "type": "function"
    },
    {
      "inputs": [],
      "name": "MIN_AMOUNT",
      "outputs": [
        {
          "internalType": "uint256",
          "name": "",
          "type": "uint256"
        }
      ],
      "stateMutability": "view",
      "type": "function"
    },
    {
      "inputs": [],
      "name": "TOKENS_PER_USDC",
      "outputs": [
        {
          "internalType": "uint256",
          "name": "",
          "type": "uint256"
        }
      ],
      "stateMutability": "view",
      "type": "function"
    },
    {
      "inputs": [],
      "name": "TOKEN_DECIMALS",
      "outputs": [
        {
          "internalType": "uint256",
          "name": "",
          "type": "uint256"
        }
      ],
      "stateMutability": "view",
      "type": "function"
    },
    {
      "inputs": [],
      "name": "USDC_DECIMALS",
      "outputs": [
        {
          "internalType": "uint256",
          "name": "",
          "type": "uint256"
        }
      ],
      "stateMutability": "view",
      "type": "function"
    },
    {
      "inputs": [],
      "name": "additionalOwner",
      "outputs": [
        {
          "internalType": "address",
          "name": "",
          "type": "address"
        }
      ],
      "stateMutability": "view",
      "type": "function"
    },
    {
      "inputs": [
        {
          "internalType": "uint256",
          "name": "",
          "type": "uint256"
        }
      ],
      "name": "challenges",
      "outputs": [
        {
          "internalType": "address",
          "name": "recipient",
          "type": "address"
        },
        {
          "internalType": "uint256",
          "name": "startTime",
          "type": "uint256"
        },
        {
          "internalType": "uint256",
          "name": "endTime",
          "type": "uint256"
        },
        {
          "internalType": "bool",
          "name": "isPrivate",
          "type": "bool"
        },
        {
          "internalType": "string",
          "name": "name",
          "type": "string"
        },
        {
          "internalType": "string",
          "name": "apiType",
          "type": "string"
        },
        {
          "internalType": "string",
          "name": "goalType",
          "type": "string"
        },
        {
          "internalType": "uint256",
          "name": "goalAmount",
          "type": "uint256"
        },
        {
          "internalType": "string",
          "name": "description",
          "type": "string"
        },
        {
          "internalType": "uint256",
          "name": "totalDonationAmount",
          "type": "uint256"
        },
        {
          "internalType": "uint256",
          "name": "totalWinnerInitialStake",
          "type": "uint256"
        },
        {
          "internalType": "uint256",
          "name": "tokenPot",
          "type": "uint256"
        },
        {
          "internalType": "uint256",
          "name": "declaredParticipants",
          "type": "uint256"
        },
        {
          "internalType": "bool",
          "name": "resultsFinalized",
          "type": "bool"
        }
      ],
      "stateMutability": "view",
      "type": "function"
    },
    {
      "inputs": [
        {
          "internalType": "uint256",
          "name": "_challengeId",
          "type": "uint256"
        }
      ],
      "name": "claimRefund",
      "outputs": [],
      "stateMutability": "nonpayable",
      "type": "function"
    },
    {
      "inputs": [
        {
          "internalType": "uint256",
          "name": "_challengeId",
          "type": "uint256"
        }
      ],
      "name": "claimTimeoutRefund",
      "outputs": [],
      "stateMutability": "nonpayable",
      "type": "function"
    },
    {
      "inputs": [],
      "name": "collectedFees",
      "outputs": [
        {
          "internalType": "uint256",
          "name": "",
          "type": "uint256"
        }
      ],
      "stateMutability": "view",
      "type": "function"
    },
    {
      "inputs": [
        {
          "internalType": "address",
          "name": "_recipient",
          "type": "address"
        },
        {
          "internalType": "uint256",
          "name": "_startTime",
          "type": "uint256"
        },
        {
          "internalType": "uint256",
          "name": "_endTime",
          "type": "uint256"
        },
        {
          "internalType": "bool",
          "name": "_isPrivate",
          "type": "bool"
        },
        {
          "internalType": "string",
          "name": "_name",
          "type": "string"
        },
        {
          "internalType": "string",
          "name": "_apiType",
          "type": "string"
        },
        {
          "internalType": "string",
          "name": "_goalType",
          "type": "string"
        },
        {
          "internalType": "uint256",
          "name": "_goalAmount",
          "type": "uint256"
        },
        {
          "internalType": "string",
          "name": "_description",
          "type": "string"
        },
        {
          "internalType": "address[]",
          "name": "_whitelistedParticipants",
          "type": "address[]"
        }
      ],
      "name": "createChallenge",
      "outputs": [
        {
          "internalType": "uint256",
          "name": "",
          "type": "uint256"
        }
      ],
      "stateMutability": "nonpayable",
      "type": "function"
    },
    {
      "inputs": [
        {
          "internalType": "uint256",
          "name": "_challengeId",
          "type": "uint256"
        },
        {
          "internalType": "address[]",
          "name": "_participants",
          "type": "address[]"
        },
        {
          "internalType": "uint256[]",
          "name": "_refundPercentages",
          "type": "uint256[]"
        }
      ],
      "name": "declareResults",
      "outputs": [],
      "stateMutability": "nonpayable",
      "type": "function"
    },
    {
      "inputs": [
        {
          "internalType": "uint256",
          "name": "_challengeId",
          "type": "uint256"
        }
      ],
      "name": "finalizeAndProcessDonations",
      "outputs": [],
      "stateMutability": "nonpayable",
      "type": "function"
    },
    {
      "inputs": [
        {
          "internalType": "uint256",
          "name": "_limit",
          "type": "uint256"
        }
      ],
      "name": "getAllChallenges",
      "outputs": [
        {
          "components": [
            {
              "internalType": "uint256",
              "name": "challengeId",
              "type": "uint256"
            },
            {
              "internalType": "address",
              "name": "recipient",
              "type": "address"
            },
            {
              "internalType": "uint256",
              "name": "startTime",
              "type": "uint256"
            },
            {
              "internalType": "uint256",
              "name": "endTime",
              "type": "uint256"
            },
            {
              "internalType": "bool",
              "name": "isPrivate",
              "type": "bool"
            },
            {
              "internalType": "string",
              "name": "name",
              "type": "string"
            },
            {
              "internalType": "string",
              "name": "apiType",
              "type": "string"
            },
            {
              "internalType": "string",
              "name": "goalType",
              "type": "string"
            },
            {
              "internalType": "uint256",
              "name": "goalAmount",
              "type": "uint256"
            },
            {
              "internalType": "string",
              "name": "description",
              "type": "string"
            },
            {
              "internalType": "uint256",
              "name": "totalDonationAmount",
              "type": "uint256"
            },
            {
              "internalType": "bool",
              "name": "resultsFinalized",
              "type": "bool"
            },
            {
              "internalType": "uint256",
              "name": "participantCount",
              "type": "uint256"
            }
          ],
          "internalType": "struct Motify.ChallengeInfo[]",
          "name": "",
          "type": "tuple[]"
        }
      ],
      "stateMutability": "view",
      "type": "function"
    },
    {
      "inputs": [
        {
          "internalType": "uint256",
          "name": "_challengeId",
          "type": "uint256"
        }
      ],
      "name": "getChallengeById",
      "outputs": [
        {
          "components": [
            {
              "internalType": "uint256",
              "name": "challengeId",
              "type": "uint256"
            },
            {
              "internalType": "address",
              "name": "recipient",
              "type": "address"
            },
            {
              "internalType": "uint256",
              "name": "startTime",
              "type": "uint256"
            },
            {
              "internalType": "uint256",
              "name": "endTime",
              "type": "uint256"
            },
            {
              "internalType": "bool",
              "name": "isPrivate",
              "type": "bool"
            },
            {
              "internalType": "string",
              "name": "name",
              "type": "string"
            },
            {
              "internalType": "string",
              "name": "apiType",
              "type": "string"
            },
            {
              "internalType": "string",
              "name": "goalType",
              "type": "string"
            },
            {
              "internalType": "uint256",
              "name": "goalAmount",
              "type": "uint256"
            },
            {
              "internalType": "string",
              "name": "description",
              "type": "string"
            },
            {
              "internalType": "uint256",
              "name": "totalDonationAmount",
              "type": "uint256"
            },
            {
              "internalType": "bool",
              "name": "resultsFinalized",
              "type": "bool"
            },
            {
              "components": [
                {
                  "internalType": "address",
                  "name": "participantAddress",
                  "type": "address"
                },
                {
                  "internalType": "uint256",
                  "name": "initialAmount",
                  "type": "uint256"
                },
                {
                  "internalType": "uint256",
                  "name": "amount",
                  "type": "uint256"
                },
                {
                  "internalType": "uint256",
                  "name": "refundPercentage",
                  "type": "uint256"
                },
                {
                  "internalType": "bool",
                  "name": "resultDeclared",
                  "type": "bool"
                }
              ],
              "internalType": "struct Motify.ParticipantInfo[]",
              "name": "participants",
              "type": "tuple[]"
            }
          ],
          "internalType": "struct Motify.ChallengeDetail",
          "name": "",
          "type": "tuple"
        }
      ],
      "stateMutability": "view",
      "type": "function"
    },
    {
      "inputs": [
        {
          "internalType": "address",
          "name": "_participant",
          "type": "address"
        }
      ],
      "name": "getChallengesForParticipant",
      "outputs": [
        {
          "components": [
            {
              "internalType": "uint256",
              "name": "challengeId",
              "type": "uint256"
            },
            {
              "internalType": "address",
              "name": "recipient",
              "type": "address"
            },
            {
              "internalType": "uint256",
              "name": "startTime",
              "type": "uint256"
            },
            {
              "internalType": "uint256",
              "name": "endTime",
              "type": "uint256"
            },
            {
              "internalType": "bool",
              "name": "isPrivate",
              "type": "bool"
            },
            {
              "internalType": "string",
              "name": "name",
              "type": "string"
            },
            {
              "internalType": "string",
              "name": "apiType",
              "type": "string"
            },
            {
              "internalType": "string",
              "name": "goalType",
              "type": "string"
            },
            {
              "internalType": "uint256",
              "name": "goalAmount",
              "type": "uint256"
            },
            {
              "internalType": "string",
              "name": "description",
              "type": "string"
            },
            {
              "internalType": "uint256",
              "name": "totalDonationAmount",
              "type": "uint256"
            },
            {
              "internalType": "bool",
              "name": "resultsFinalized",
              "type": "bool"
            },
            {
              "internalType": "uint256",
              "name": "participantCount",
              "type": "uint256"
            }
          ],
          "internalType": "struct Motify.ChallengeInfo[]",
          "name": "",
          "type": "tuple[]"
        }
      ],
      "stateMutability": "view",
      "type": "function"
    },
    {
      "inputs": [
        {
          "internalType": "uint256",
          "name": "_challengeId",
          "type": "uint256"
        },
        {
          "internalType": "address",
          "name": "_participant",
          "type": "address"
        }
      ],
      "name": "getParticipantInfo",
      "outputs": [
        {
          "components": [
            {
              "internalType": "address",
              "name": "participantAddress",
              "type": "address"
            },
            {
              "internalType": "uint256",
              "name": "initialAmount",
              "type": "uint256"
            },
            {
              "internalType": "uint256",
              "name": "amount",
              "type": "uint256"
            },
            {
              "internalType": "uint256",
              "name": "refundPercentage",
              "type": "uint256"
            },
            {
              "internalType": "bool",
              "name": "resultDeclared",
              "type": "bool"
            }
          ],
          "internalType": "struct Motify.ParticipantInfo",
          "name": "",
          "type": "tuple"
        }
      ],
      "stateMutability": "view",
      "type": "function"
    },
    {
      "inputs": [
        {
          "internalType": "uint256",
          "name": "_challengeId",
          "type": "uint256"
        },
        {
          "internalType": "uint256",
          "name": "_stakeAmount",
          "type": "uint256"
        }
      ],
      "name": "joinChallenge",
      "outputs": [],
      "stateMutability": "nonpayable",
      "type": "function"
    },
    {
      "inputs": [],
      "name": "motifyToken",
      "outputs": [
        {
          "internalType": "contract IMotifyToken",
          "name": "",
          "type": "address"
        }
      ],
      "stateMutability": "view",
      "type": "function"
    },
    {
      "inputs": [],
      "name": "nextChallengeId",
      "outputs": [
        {
          "internalType": "uint256",
          "name": "",
          "type": "uint256"
        }
      ],
      "stateMutability": "view",
      "type": "function"
    },
    {
      "inputs": [],
      "name": "owner",
      "outputs": [
        {
          "internalType": "address",
          "name": "",
          "type": "address"
        }
      ],
      "stateMutability": "view",
      "type": "function"
    },
    {
      "inputs": [
        {
          "internalType": "address",
          "name": "_tokenAddress",
          "type": "address"
        }
      ],
      "name": "setTokenAddress",
      "outputs": [],
      "stateMutability": "nonpayable",
      "type": "function"
    },
    {
      "inputs": [],
      "name": "usdc",
      "outputs": [
        {
          "internalType": "contract IERC20",
          "name": "",
          "type": "address"
        }
      ],
      "stateMutability": "view",
      "type": "function"
    },
    {
      "inputs": [
        {
          "internalType": "address",
          "name": "",
          "type": "address"
        },
        {
          "internalType": "uint256",
          "name": "",
          "type": "uint256"
        }
      ],
      "name": "userChallenges",
      "outputs": [
        {
          "internalType": "uint256",
          "name": "",
          "type": "uint256"
        }
      ],
      "stateMutability": "view",
      "type": "function"
    },
    {
      "inputs": [
        {
          "internalType": "address",
          "name": "_to",
          "type": "address"
        }
      ],
      "name": "withdrawFees",
      "outputs": [],
      "stateMutability": "nonpayable",
      "type": "function"
    }
  ],
  "bytecode": "0x60c0346200018857601f62002b2438819003918201601f19168301916001600160401b038311848410176200018d57808492604094855283398101031262000188576200005a60206200005283620001a3565b9201620001a3565b6001600160a01b039182169182156200014357811615620000ee57600180546001600160a01b0319163317905560a05260805260405161296b9081620001b98239608051818181610e69015281816111e501528181611bef01528181611e230152818161200c01526121cc015260a051818181610c4501528181611ccd015281816120510152818161215101526122660152f35b60405162461bcd60e51b815260206004820152602760248201527f4164646974696f6e616c206f776e657220616464726573732063616e6e6f74206044820152666265207a65726f60c81b6064820152608490fd5b60405162461bcd60e51b815260206004820152601b60248201527f5553444320616464726573732063616e6e6f74206265207a65726f00000000006044820152606490fd5b600080fd5b634e487b7160e01b600052604160045260246000fd5b51906001600160a01b0382168203620001885756fe6080604052600436101561001257600080fd5b6000803560e01c8063126082cf1461228d578063164e68de1461217857806326a4e8d2146120805780632cb6aee41461203b5780633e413bee14611ff65780635253b74914611fda5780635a382f0514611fd55780635b7baf6414611dd05780635b7f415c14611db457806367b2e1da14611d8d5780638050111914611af15780638da5cb5b14611ac85780638f1d3776146119a35780639003adfe1461198557806391f5800d14610f8957806392376e131461160857806399abff4b14611528578063a525ad3c1461150b578063a5ff0a13146114b5578063bd5dab12146110fd578063c1419def146110e1578063c142c2a514610f8e578063c32e0ef014610f89578063cc9f3c5114610dc7578063cee7239314610c77578063db94a2c01461095b578063ddbcb5fa1461093d578063ec1afa471461017c5763fc67aa501461015c57600080fd5b346101795780600319360112610179576020600254604051908152f35b80fd5b503461017957610140366003190112610179576101976122aa565b606435151560643503610939576084356001600160401b038111610935576101c390369060040161261a565b60a4939193356001600160401b038111610935576101e590369060040161261a565b60c4939193356001600160401b0381116109355761020790369060040161261a565b610104929192356001600160401b0381116109315761022a90369060040161261a565b939092610124356001600160401b03811161092d5761024d9036906004016125ea565b9890976001600160a01b038b16156108e8574260243511156108a4576024356044351115610855576002549b6102828d612684565b6002558c89526004602052604089209b60018060a01b03166bffffffffffffffffffffffff60a01b8d5416178c5560243560018d015560443560028d015560ff1960038d01541660ff6064351515161760038d01556001600160401b0382116108415781906102f460048e01546122e3565b601f81116107f0575b508990601f8311600114610784578a92610779575b50508160011b916000199060031b1c19161760048b01555b6001600160401b03821161076557819061034760058c01546122e3565b601f8111610714575b508790601f83116001146106a857889261069d575b50508160011b916000199060031b1c19161760058901555b6001600160401b03821161068957819061039a60068a01546122e3565b601f8111610638575b508590601f83116001146105cc5786926105c1575b50508160011b916000199060031b1c19161760068701555b60e43560078701556001600160401b0382116105ad5781906103f560088801546122e3565b601f811161055c575b508390601f83116001146104f05784926104e5575b50508160011b916000199060031b1c19161760088501555b60643561043e575b602085604051908152f35b8215610494579192600b01915b838110156104335761048f906001600160a01b0361047261046d838887612693565b6126a3565b16600052836020526040600020600160ff19825416179055612684565b61044b565b60405162461bcd60e51b8152602060048201526024808201527f50726976617465206368616c6c656e6765206e65656473207061727469636970604482015263616e747360e01b6064820152608490fd5b013590503880610413565b60088801855260208520859450915b601f1984168510610544576001945083601f1981161061052a575b505050811b01600885015561042b565b0135600019600384901b60f8161c1916905538808061051a565b818101358355602094850194600190930192016104ff565b90915060088701845260208420601f840160051c8101602085106105a6575b90849392915b601f830160051c820181106105975750506103fe565b60008155859450600101610581565b508061057b565b634e487b7160e01b83526041600452602483fd5b0135905038806103b8565b60068a01875260208720879450915b601f1984168510610620576001945083601f19811610610606575b505050811b0160068701556103d0565b0135600019600384901b60f8161c191690553880806105f6565b818101358355602094850194600190930192016105db565b90915060068901865260208620601f840160051c810160208510610682575b90849392915b601f830160051c820181106106735750506103a3565b6000815585945060010161065d565b5080610657565b634e487b7160e01b85526041600452602485fd5b013590503880610365565b60058c01895260208920899450915b601f19841685106106fc576001945083601f198116106106e2575b505050811b01600589015561037d565b0135600019600384901b60f8161c191690553880806106d2565b818101358355602094850194600190930192016106b7565b90915060058b01885260208820601f840160051c81016020851061075e575b90849392915b601f830160051c8201811061074f575050610350565b60008155859450600101610739565b5080610733565b634e487b7160e01b87526041600452602487fd5b013590503880610312565b60048e018b5260208b208b9450915b601f19841685106107d8576001945083601f198116106107be575b505050811b0160048b015561032a565b0135600019600384901b60f8161c191690553880806107ae565b81810135835560209485019460019093019201610793565b90915060048d018a5260208a20601f840160051c81016020851061083a575b90849392915b601f830160051c8201811061082b5750506102fd565b60008155859450600101610815565b508061080f565b634e487b7160e01b89526041600452602489fd5b60405162461bcd60e51b815260206004820152602160248201527f456e642074696d65206d7573742062652061667465722073746172742074696d6044820152606560f81b6064820152608490fd5b606460405162461bcd60e51b815260206004820152602060248201527f53746172742074696d65206d75737420626520696e20746865206675747572656044820152fd5b60405162461bcd60e51b815260206004820152601960248201527f496e76616c696420726563697069656e742061646472657373000000000000006044820152606490fd5b8680fd5b8480fd5b8280fd5b5080fd5b50346101795780600319360112610179576020604051620f42408152f35b5034610179576060366003190112610179576001600160401b036024358181116109355761098d9036906004016125ea565b91604435908111610c73576109a69036906004016125ea565b909160018060a01b036001541633148015610c41575b6109c590612647565b6004358552600460205260408520916109e4600284015442101561274c565b60ff601084015416610bec57808503610baf57855b858110610a04578680f35b610a0f818387612693565b35906127108211610b6a576001600160a01b03610a3061046d838a88612693565b166000526009850160205260406000208054928315610b2d5760ff600383015416610ad85783612710610a6683610abc976126d1565b0490610a7f610a7583836122c0565b600c8b0154612798565b600c8a015581610ac1575b50600183015560028201556003600160ff19828401541617910155610ab2600f860154612684565b600f860155612684565b6109f9565b610ad0600d8a01918254612798565b905538610a8a565b60405162461bcd60e51b815260206004820152602760248201527f526573756c7420616c7265616479206465636c6172656420666f7220706172746044820152661a58da5c185b9d60ca1b6064820152608490fd5b60405162461bcd60e51b815260206004820152601560248201527414185c9d1a58da5c185b9d081b9bdd08199bdd5b99605a1b6044820152606490fd5b60405162461bcd60e51b815260206004820152601960248201527f496e76616c696420726566756e642070657263656e74616765000000000000006044820152606490fd5b60405162461bcd60e51b8152602060048201526015602482015274082e4e4c2f240d8cadccee8d040dad2e6dac2e8c6d605b1b6044820152606490fd5b60405162461bcd60e51b815260206004820152602760248201527f4368616c6c656e676520726573756c74732061726520616c72656164792066696044820152661b985b1a5e995960ca1b6064820152608490fd5b50337f00000000000000000000000000000000000000000000000000000000000000006001600160a01b0316146109bc565b8380fd5b50346101795760209081600319360112610179576001600160a01b039081610c9d6122aa565b1681526005928381526040822093845493610cb785612888565b95845b868110610cd35760405180610ccf8a826124d0565b0390f35b80610d3986610ce5610dc294866124a2565b919054600392831b1c91828b5260048252610d8d600860408d208a8154166001820154600283015460ff80978501541691600785015493600c8601549860108701541699600a8701549b6040519d8e612346565b8d528c015260408b015260608a015215156080890152610d5b6004830161239e565b60a0890152610d6b8d830161239e565b60c0890152610d7c6006830161239e565b60e08901526101008801520161239e565b6101208501526101408401521515610160830152610180820152610db1828b612874565b52610dbc818a612874565b50612684565b610cba565b5034610179576020806003193601126109395760043582526004815260408220336000526009810182526040600020600381019081549060ff8216610f4457600284015462093a808101809111610f3057421115610ee0578054948515610e905750916001610e8d9594928782866127106002600d990155015560ff1916179055600f8101610e568154612684565b905501610e64828254612798565b9055337f00000000000000000000000000000000000000000000000000000000000000006127a5565b80f35b6084906040519062461bcd60e51b825260048201526024808201527f4e6f2066756e647320746f20636c61696d206f7220616c726561647920636c616044820152631a5b595960e21b6064820152fd5b60405162461bcd60e51b815260048101869052602260248201527f4465636c61726174696f6e20706572696f6420686173206e6f74206578706972604482015261195960f21b6064820152608490fd5b634e487b7160e01b87526011600452602487fd5b60405162461bcd60e51b815260048101869052601d60248201527f526573756c7473207765726520616c7265616479206465636c617265640000006044820152606490fd5b612484565b5034610179576020806003193601126109395760043560648111156110db57506064905b6002908154928084106000146110d5575082915b610fcf83612888565b936000198101908111865b858110610fef5760405180610ccf89826124d0565b816110c1578061105a6110056110bc93866122c0565b808b52600488528760408c2061108d600860018060a01b03835416926001810154938c8201549460ff958660038501541691600785015493600c8601549860108701541699600a8701549b6040519d8e612346565b8d528c015260408b015260608a01521515608089015261107c6004830161239e565b60a0890152610d6b6005830161239e565b61012085015261014084015215156101608301526101808201526110b1828a612874565b52610dbc8189612874565b610fda565b634e487b7160e01b88526011600452602488fd5b91610fc6565b90610fb2565b5034610179578060031936011261017957602060405160068152f35b5034610179576040366003190112610179576004359060249182358183526020906004825260408420600181015442101561147157620f4240821061143d5760ff6003820154166113d7575b33600052600981018352604060002080546113a25785546040516370a0823160e01b81523360048201526001600160a01b039491869082908b90829089165afa801561134157889061136a575b662386f26fc10000915004818111611363575b6112096111b682846122c0565b604051906323b872dd60e01b89830152338c8301523060448301526064820152606481526111e381612362565b7f00000000000000000000000000000000000000000000000000000000000000006126e4565b801580156112d1575b5050808255600182015560028101869055600301805460ff19169055600a018054680100000000000000009390929091848410156112be578361125c9160016005960181556124a2565b819291549060031b9133831b921b191617905533855252604083208054918210156112aa5790611291916001820181556124a2565b819291549060031b91821b91600019901b191617905580f35b5050634e487b7160e01b8252506041600452fd5b634e487b7160e01b875260416004528787fd5b612710808302928304141715611350576112ea906126b7565b8488541690813b1561134c57604051632770a7eb60e21b815233600482015260248101919091529088908290604490829084905af180156113415790889115611212576113369061231d565b61092d578638611212565b6040513d8a823e3d90fd5b8880fd5b634e487b7160e01b885260116004528888fd5b50806111a9565b508581813d831161139b575b611380818361237d565b8101031261139757662386f26fc100009051611196565b8780fd5b503d611376565b60405162461bcd60e51b815260048101859052600e818901526d105b1c9958591e481a9bda5b995960921b6044820152606490fd5b33600052600b8101835260ff604060002054166111495760405162461bcd60e51b8152600481018490526022818801527f4e6f742077686974656c697374656420666f722074686973206368616c6c656e604482015261676560f01b6064820152608490fd5b60405162461bcd60e51b815260048101849052600d818801526c42656c6f77206d696e696d756d60981b6044820152606490fd5b60405162461bcd60e51b815260048101849052601c818801527f43616e6e6f74206a6f696e2061667465722073746172742074696d65000000006044820152606490fd5b5034610179576040366003190112610179576114cf6122aa565b6001600160a01b03168152600560205260408120805460243592908310156101795760206114fd84846124a2565b90546040519160031b1c8152f35b503461017957806003193601126101795760206040516103e88152f35b503461017957604036600319011261017957600435906024356001600160a01b038116919082900361160357604060099160a094611564612849565b5061157260025482106127e6565b815260046020522001816000526020526040600020805490600181015460ff600360028401549301541692604051946115aa86612362565b85526020850152604084015260608301521515608082015261160160405180926080809160018060a01b03815116845260208101516020850152604081015160408501526060810151606085015201511515910152565bf35b600080fd5b503461017957602036600319011261017957606061018060405161162b81612346565b83815283602082015283604082015283838201528360808201528260a08201528260c08201528260e0820152836101008201528261012082015283610140820152836101608201520152611684600254600435106127e6565b600435815260046020526040812090600a8201546116a181612832565b906116af604051928361237d565b808252601f196116be82612832565b01835b81811061196e575050825b8181106118e657505060018060a01b0383541692600181015490611775600860028301549260ff600382015416600782015490600c8301549560ff601085015416976040519b61171b8d612346565b6004358d5260208d015260408c015260608b0152151560808a01526117426004830161239e565b60a08a01526117536005830161239e565b60c08a01526117646006830161239e565b60e08a01526101008901520161239e565b6101208601526101408501521515610160840152610180830152604051918291602083528151602084015260018060a01b03602083015116604084015260408201516060840152606082015160808401526080820151151560a084015260a08201519161018061184d6118296118126117fc6101a0978860c08b01526101c08a0190612444565b60c0860151898203601f190160e08b0152612444565b60e0850151888203601f19016101008a0152612444565b610100840151610120880152610120840151601f1988830301610140890152612444565b91610140810151610160870152610160810151151582870152015192601f198583030190850152602080845192838152019301915b818110611890575050500390f35b91935091602060a0826118d860019488516080809160018060a01b03815116845260208101516020850152604081015160408501526060810151606085015201511515910152565b019401910191849392611882565b806118f761196992600a88016124a2565b90549060039160018060a01b0391831b1c16908160005260098801602052604060002080549160ff600183015491600284015493015416926040519461193c86612362565b85526020850152604084015260608301521515608082015261195e8286612874565b52610dbc8185612874565b6116cc565b602090611979612849565b828287010152016116c1565b50346101795780600319360112610179576020600354604051908152f35b5034610179576020366003190112610179576004358152600460205260409020600160a01b600190038154166001820154916002810154600382015460ff1691600481016119f09061239e565b926119fd6005830161239e565b93611a0a6006840161239e565b6007840154611a1b6008860161239e565b91600c86015497600d87015494600e88015496600f890154986010015460ff16996040519d8e809e81526020015260408d0152151560608c01526101c08060808d01528b01611a6991612444565b8a810360a08c0152611a7a91612444565b89810360c08b0152611a8b91612444565b9060e0890152878103610100890152611aa391612444565b9461012087015261014086015261016085015261018084015215156101a08301520390f35b50346101795780600319360112610179576001546040516001600160a01b039091168152602090f35b5034610179576020366003190112610179576004358152600460205260408120906002820154611b238142101561274c565b60108301805460ff8116611d3a57600f850154600a86015403611cf5576001546001600160a01b039390841633141580611cc9575b611c5b575b5060019060ff1916179055600c830154908115938415611b7b578380f35b6103e89485840295848704141715611c475761271080950494611bac8660011c96611ba688826122c0565b956122c0565b600d83015490949015611c2f57818102918183041490151715611c1b57611c139495611bda611be8926126b7565b600e8401555b600354612798565b60035554167f00000000000000000000000000000000000000000000000000000000000000006127a5565b803880808380f35b634e487b7160e01b85526011600452602485fd5b611be89150611c4290611c139697612798565b611be0565b634e487b7160e01b84526011600452602484fd5b62093a808101809111611c1b57421115611c755738611b5d565b60405162461bcd60e51b815260206004820152602660248201527f4f6e6c79206f776e65722063616e2066696e616c697a65206265666f726520746044820152651a5b595bdd5d60d21b6064820152608490fd5b50837f000000000000000000000000000000000000000000000000000000000000000016331415611b58565b60405162461bcd60e51b815260206004820152601860248201527f4e6f7420616c6c20726573756c7473206465636c6172656400000000000000006044820152606490fd5b60405162461bcd60e51b815260206004820152602560248201527f446f6e6174696f6e73206861766520616c7265616479206265656e2070726f63604482015264195cdcd95960da1b6064820152608490fd5b5034610179578060031936011261017957546040516001600160a01b039091168152602090f35b5034610179578060031936011261017957602060405160128152f35b503461017957602080600319360112610939576004358252600481526040822090338352600982018152604083209060ff60038301541615611f9157600182018054908115611f3e579085611e479255337f00000000000000000000000000000000000000000000000000000000000000006127a5565b60ff60108401541615611efa5750600d820154908115928315611e68578480f35b600e611e789254910154906126d1565b91611ee65782548391906001600160a01b0316803b15610935576040516340c10f1960e01b8152336004820152919093046024820152918290604490829084905af18015611edb57611ecc575b8080808480f35b611ed59061231d565b38611ec5565b6040513d84823e3d90fd5b634e487b7160e01b83526012600452602483fd5b6064906040519062461bcd60e51b82526004820152601760248201527f4368616c6c656e6765206e6f742066696e616c697a65640000000000000000006044820152fd5b60405162461bcd60e51b815260048101849052602560248201527f4e6f20726566756e6420746f20636c61696d206f7220616c726561647920636c604482015264185a5b595960da1b6064820152608490fd5b6064906040519062461bcd60e51b82526004820152601860248201527f526573756c7473206e6f7420796574206465636c6172656400000000000000006044820152fd5b61228d565b50346101795780600319360112610179576020604051600c8152f35b50346101795780600319360112610179576040517f00000000000000000000000000000000000000000000000000000000000000006001600160a01b03168152602090f35b50346101795780600319360112610179576040517f00000000000000000000000000000000000000000000000000000000000000006001600160a01b03168152602090f35b50346101795760203660031901126101795761209a6122aa565b6001546001600160a01b0391829182163314801561214d575b6120bc90612647565b169081156121105782549081166120dd576001600160a01b03191617815580f35b60405162461bcd60e51b815260206004820152600b60248201526a105b1c9958591e481cd95d60aa1b6044820152606490fd5b60405162461bcd60e51b8152602060048201526015602482015274496e76616c696420746f6b656e206164647265737360581b6044820152606490fd5b50337f00000000000000000000000000000000000000000000000000000000000000008316146120b3565b5034610179576020366003190112610179576121926122aa565b6001546001600160a01b0390811633148015612262575b6121b290612647565b81161561222b5760035480156121f057610e8d91836003557f00000000000000000000000000000000000000000000000000000000000000006127a5565b60405162461bcd60e51b81526020600482015260136024820152724e6f206665657320746f20776974686472617760681b6044820152606490fd5b60405162461bcd60e51b815260206004820152600f60248201526e496e76616c6964206164647265737360881b6044820152606490fd5b50337f00000000000000000000000000000000000000000000000000000000000000008216146121a9565b346116035760003660031901126116035760206040516127108152f35b600435906001600160a01b038216820361160357565b919082039182116122cd57565b634e487b7160e01b600052601160045260246000fd5b90600182811c92168015612313575b60208310146122fd57565b634e487b7160e01b600052602260045260246000fd5b91607f16916122f2565b6001600160401b03811161233057604052565b634e487b7160e01b600052604160045260246000fd5b6101a081019081106001600160401b0382111761233057604052565b60a081019081106001600160401b0382111761233057604052565b90601f801991011681019081106001600160401b0382111761233057604052565b90604051918260008254926123b2846122e3565b90818452600194858116908160001461242157506001146123de575b50506123dc9250038361237d565b565b9093915060005260209081600020936000915b8183106124095750506123dc935082010138806123ce565b855488840185015294850194879450918301916123f1565b9150506123dc94506020925060ff191682840152151560051b82010138806123ce565b919082519283825260005b848110612470575050826000602080949584010152601f8019910116010190565b60208183018101518483018201520161244f565b3461160357600036600319011261160357602060405162093a808152f35b80548210156124ba5760005260206000200190600090565b634e487b7160e01b600052603260045260246000fd5b602080820190808352835180925260409283810182858560051b8401019601946000925b858410612505575050505050505090565b909192939495968580600192603f198582030187528a519081518152848060a01b038383015116838201528682015187820152606080830151908201526080808301511515908201526125b661259761258461257160a080870151906101a08091880152860190612444565b60c0808701519086830390870152612444565b60e0808601519085830390860152612444565b6101008085015190840152610120808501519084830390850152612444565b91610140808201519083015261016080820151151590830152610180809101519101529901940194019295949391906124f4565b9181601f84011215611603578235916001600160401b038311611603576020808501948460051b01011161160357565b9181601f84011215611603578235916001600160401b038311611603576020838186019501011161160357565b1561264e57565b60405162461bcd60e51b815260206004820152600e60248201526d139bdd08185d5d1a1bdc9a5e995960921b6044820152606490fd5b60001981146122cd5760010190565b91908110156124ba5760051b0190565b356001600160a01b03811681036116035790565b9064e8d4a51000918281029281840414901517156122cd57565b818102929181159184041417156122cd57565b906000602091828151910182855af115612740576000513d61273757506001600160a01b0381163b155b6127155750565b604051635274afe760e01b81526001600160a01b039091166004820152602490fd5b6001141561270e565b6040513d6000823e3d90fd5b1561275357565b60405162461bcd60e51b815260206004820152601760248201527f4368616c6c656e6765206e6f7420656e646564207965740000000000000000006044820152606490fd5b919082018092116122cd57565b60405163a9059cbb60e01b60208201526001600160a01b039290921660248301526044808301939093529181526123dc916127e160648361237d565b6126e4565b156127ed57565b60405162461bcd60e51b815260206004820152601860248201527f4368616c6c656e676520646f6573206e6f7420657869737400000000000000006044820152606490fd5b6001600160401b0381116123305760051b60200190565b6040519061285682612362565b60006080838281528260208201528260408201528260608201520152565b80518210156124ba5760209160051b010190565b9061289282612832565b6040906128a18251918261237d565b83815280936128b2601f1991612832565b019160005b8381106128c45750505050565b60209082516128d281612346565b60008152826000818301526000858301526060600081840152600060808401528060a08401528060c08401528060e084015260006101008401526101208301526000610140830152600061016083015260006101808301528286010152016128b756fea2646970667358221220af4f4e8df83d355f79cb1c6361cc0ead24f75eb4bf80966424d8e4406f3fac6e64736f6c63430008140033",
  "linkReferences": {},
  "deployedLinkReferences": {}
}