{
  "_format": "hh-sol-artifact-1",
  "contractName": "Motify",
  "sourceName": "contracts/Motify.sol",
  "abi": [
    {
      "inputs": [
        {
          "internalType": "address",
          "name": "_usdcAddress",
          "type": "address"
        }
      ],
      "stateMutability": "nonpayable",
      "type": "constructor"
    },
    {
      "inputs": [
        {
          "internalType": "address",
          "name": "token",
          "type": "address"
        }
      ],
      "name": "SafeERC20FailedOperation",
      "type": "error"
    },
    {
      "anonymous": false,
      "inputs": [
        {
          "indexed": true,
          "internalType": "uint256",
          "name": "challengeId",
          "type": "uint256"
        }
      ],
      "name": "ChallengeCreated",
      "type": "event"
    },
    {
      "anonymous": false,
      "inputs": [
        {
          "indexed": true,
          "internalType": "uint256",
          "name": "challengeId",
          "type": "uint256"
        },
        {
          "indexed": true,
          "internalType": "address",
          "name": "participant",
          "type": "address"
        }
      ],
      "name": "ChallengeJoined",
      "type": "event"
    },
    {
      "anonymous": false,
      "inputs": [
        {
          "indexed": true,
          "internalType": "uint256",
          "name": "challengeId",
          "type": "uint256"
        }
      ],
      "name": "DonationsFinalized",
      "type": "event"
    },
    {
      "anonymous": false,
      "inputs": [
        {
          "indexed": true,
          "internalType": "address",
          "name": "to",
          "type": "address"
        },
        {
          "indexed": false,
          "internalType": "uint256",
          "name": "amount",
          "type": "uint256"
        }
      ],
      "name": "FeesWithdrawn",
      "type": "event"
    },
    {
      "anonymous": false,
      "inputs": [
        {
          "indexed": true,
          "internalType": "uint256",
          "name": "challengeId",
          "type": "uint256"
        },
        {
          "indexed": true,
          "internalType": "address",
          "name": "participant",
          "type": "address"
        }
      ],
      "name": "RefundClaimed",
      "type": "event"
    },
    {
      "anonymous": false,
      "inputs": [
        {
          "indexed": true,
          "internalType": "uint256",
          "name": "challengeId",
          "type": "uint256"
        }
      ],
      "name": "ResultsDeclared",
      "type": "event"
    },
    {
      "anonymous": false,
      "inputs": [
        {
          "indexed": true,
          "internalType": "uint256",
          "name": "challengeId",
          "type": "uint256"
        },
        {
          "indexed": true,
          "internalType": "address",
          "name": "participant",
          "type": "address"
        }
      ],
      "name": "TimeoutRefundClaimed",
      "type": "event"
    },
    {
      "inputs": [],
      "name": "BASIS_POINTS_DIVISOR",
      "outputs": [
        {
          "internalType": "uint256",
          "name": "",
          "type": "uint256"
        }
      ],
      "stateMutability": "view",
      "type": "function"
    },
    {
      "inputs": [],
      "name": "DECIMAL_DIFF",
      "outputs": [
        {
          "internalType": "uint256",
          "name": "",
          "type": "uint256"
        }
      ],
      "stateMutability": "view",
      "type": "function"
    },
    {
      "inputs": [],
      "name": "DECLARATION_TIMEOUT",
      "outputs": [
        {
          "internalType": "uint256",
          "name": "",
          "type": "uint256"
        }
      ],
      "stateMutability": "view",
      "type": "function"
    },
    {
      "inputs": [],
      "name": "FEE_BASIS_POINTS",
      "outputs": [
        {
          "internalType": "uint256",
          "name": "",
          "type": "uint256"
        }
      ],
      "stateMutability": "view",
      "type": "function"
    },
    {
      "inputs": [],
      "name": "FINALIZATION_TIMEOUT",
      "outputs": [
        {
          "internalType": "uint256",
          "name": "",
          "type": "uint256"
        }
      ],
      "stateMutability": "view",
      "type": "function"
    },
    {
      "inputs": [],
      "name": "MIN_AMOUNT",
      "outputs": [
        {
          "internalType": "uint256",
          "name": "",
          "type": "uint256"
        }
      ],
      "stateMutability": "view",
      "type": "function"
    },
    {
      "inputs": [],
      "name": "TOKENS_PER_USDC",
      "outputs": [
        {
          "internalType": "uint256",
          "name": "",
          "type": "uint256"
        }
      ],
      "stateMutability": "view",
      "type": "function"
    },
    {
      "inputs": [],
      "name": "TOKEN_DECIMALS",
      "outputs": [
        {
          "internalType": "uint256",
          "name": "",
          "type": "uint256"
        }
      ],
      "stateMutability": "view",
      "type": "function"
    },
    {
      "inputs": [],
      "name": "USDC_DECIMALS",
      "outputs": [
        {
          "internalType": "uint256",
          "name": "",
          "type": "uint256"
        }
      ],
      "stateMutability": "view",
      "type": "function"
    },
    {
      "inputs": [
        {
          "internalType": "uint256",
          "name": "",
          "type": "uint256"
        }
      ],
      "name": "challenges",
      "outputs": [
        {
          "internalType": "address",
          "name": "recipient",
          "type": "address"
        },
        {
          "internalType": "uint256",
          "name": "startTime",
          "type": "uint256"
        },
        {
          "internalType": "uint256",
          "name": "endTime",
          "type": "uint256"
        },
        {
          "internalType": "bool",
          "name": "isPrivate",
          "type": "bool"
        },
        {
          "internalType": "string",
          "name": "name",
          "type": "string"
        },
        {
          "internalType": "string",
          "name": "apiType",
          "type": "string"
        },
        {
          "internalType": "string",
          "name": "goalType",
          "type": "string"
        },
        {
          "internalType": "uint256",
          "name": "goalAmount",
          "type": "uint256"
        },
        {
          "internalType": "string",
          "name": "description",
          "type": "string"
        },
        {
          "internalType": "uint256",
          "name": "totalDonationAmount",
          "type": "uint256"
        },
        {
          "internalType": "uint256",
          "name": "totalWinnerInitialStake",
          "type": "uint256"
        },
        {
          "internalType": "uint256",
          "name": "tokenPot",
          "type": "uint256"
        },
        {
          "internalType": "uint256",
          "name": "declaredParticipants",
          "type": "uint256"
        },
        {
          "internalType": "bool",
          "name": "resultsFinalized",
          "type": "bool"
        }
      ],
      "stateMutability": "view",
      "type": "function"
    },
    {
      "inputs": [
        {
          "internalType": "uint256",
          "name": "_challengeId",
          "type": "uint256"
        }
      ],
      "name": "claimRefund",
      "outputs": [],
      "stateMutability": "nonpayable",
      "type": "function"
    },
    {
      "inputs": [
        {
          "internalType": "uint256",
          "name": "_challengeId",
          "type": "uint256"
        }
      ],
      "name": "claimTimeoutRefund",
      "outputs": [],
      "stateMutability": "nonpayable",
      "type": "function"
    },
    {
      "inputs": [],
      "name": "collectedFees",
      "outputs": [
        {
          "internalType": "uint256",
          "name": "",
          "type": "uint256"
        }
      ],
      "stateMutability": "view",
      "type": "function"
    },
    {
      "inputs": [
        {
          "internalType": "address",
          "name": "_recipient",
          "type": "address"
        },
        {
          "internalType": "uint256",
          "name": "_startTime",
          "type": "uint256"
        },
        {
          "internalType": "uint256",
          "name": "_endTime",
          "type": "uint256"
        },
        {
          "internalType": "bool",
          "name": "_isPrivate",
          "type": "bool"
        },
        {
          "internalType": "string",
          "name": "_name",
          "type": "string"
        },
        {
          "internalType": "string",
          "name": "_apiType",
          "type": "string"
        },
        {
          "internalType": "string",
          "name": "_goalType",
          "type": "string"
        },
        {
          "internalType": "uint256",
          "name": "_goalAmount",
          "type": "uint256"
        },
        {
          "internalType": "string",
          "name": "_description",
          "type": "string"
        },
        {
          "internalType": "address[]",
          "name": "_whitelistedParticipants",
          "type": "address[]"
        }
      ],
      "name": "createChallenge",
      "outputs": [
        {
          "internalType": "uint256",
          "name": "",
          "type": "uint256"
        }
      ],
      "stateMutability": "nonpayable",
      "type": "function"
    },
    {
      "inputs": [
        {
          "internalType": "uint256",
          "name": "_challengeId",
          "type": "uint256"
        },
        {
          "internalType": "address[]",
          "name": "_participants",
          "type": "address[]"
        },
        {
          "internalType": "uint256[]",
          "name": "_refundPercentages",
          "type": "uint256[]"
        }
      ],
      "name": "declareResults",
      "outputs": [],
      "stateMutability": "nonpayable",
      "type": "function"
    },
    {
      "inputs": [
        {
          "internalType": "uint256",
          "name": "_challengeId",
          "type": "uint256"
        }
      ],
      "name": "finalizeAndProcessDonations",
      "outputs": [],
      "stateMutability": "nonpayable",
      "type": "function"
    },
    {
      "inputs": [
        {
          "internalType": "uint256",
          "name": "_limit",
          "type": "uint256"
        }
      ],
      "name": "getAllChallenges",
      "outputs": [
        {
          "components": [
            {
              "internalType": "uint256",
              "name": "challengeId",
              "type": "uint256"
            },
            {
              "internalType": "address",
              "name": "recipient",
              "type": "address"
            },
            {
              "internalType": "uint256",
              "name": "startTime",
              "type": "uint256"
            },
            {
              "internalType": "uint256",
              "name": "endTime",
              "type": "uint256"
            },
            {
              "internalType": "bool",
              "name": "isPrivate",
              "type": "bool"
            },
            {
              "internalType": "string",
              "name": "name",
              "type": "string"
            },
            {
              "internalType": "string",
              "name": "apiType",
              "type": "string"
            },
            {
              "internalType": "string",
              "name": "goalType",
              "type": "string"
            },
            {
              "internalType": "uint256",
              "name": "goalAmount",
              "type": "uint256"
            },
            {
              "internalType": "string",
              "name": "description",
              "type": "string"
            },
            {
              "internalType": "uint256",
              "name": "totalDonationAmount",
              "type": "uint256"
            },
            {
              "internalType": "bool",
              "name": "resultsFinalized",
              "type": "bool"
            },
            {
              "internalType": "uint256",
              "name": "participantCount",
              "type": "uint256"
            }
          ],
          "internalType": "struct Motify.ChallengeInfo[]",
          "name": "",
          "type": "tuple[]"
        }
      ],
      "stateMutability": "view",
      "type": "function"
    },
    {
      "inputs": [
        {
          "internalType": "uint256",
          "name": "_challengeId",
          "type": "uint256"
        }
      ],
      "name": "getChallengeById",
      "outputs": [
        {
          "components": [
            {
              "internalType": "uint256",
              "name": "challengeId",
              "type": "uint256"
            },
            {
              "internalType": "address",
              "name": "recipient",
              "type": "address"
            },
            {
              "internalType": "uint256",
              "name": "startTime",
              "type": "uint256"
            },
            {
              "internalType": "uint256",
              "name": "endTime",
              "type": "uint256"
            },
            {
              "internalType": "bool",
              "name": "isPrivate",
              "type": "bool"
            },
            {
              "internalType": "string",
              "name": "name",
              "type": "string"
            },
            {
              "internalType": "string",
              "name": "apiType",
              "type": "string"
            },
            {
              "internalType": "string",
              "name": "goalType",
              "type": "string"
            },
            {
              "internalType": "uint256",
              "name": "goalAmount",
              "type": "uint256"
            },
            {
              "internalType": "string",
              "name": "description",
              "type": "string"
            },
            {
              "internalType": "uint256",
              "name": "totalDonationAmount",
              "type": "uint256"
            },
            {
              "internalType": "bool",
              "name": "resultsFinalized",
              "type": "bool"
            },
            {
              "components": [
                {
                  "internalType": "address",
                  "name": "participantAddress",
                  "type": "address"
                },
                {
                  "internalType": "uint256",
                  "name": "initialAmount",
                  "type": "uint256"
                },
                {
                  "internalType": "uint256",
                  "name": "amount",
                  "type": "uint256"
                },
                {
                  "internalType": "uint256",
                  "name": "refundPercentage",
                  "type": "uint256"
                },
                {
                  "internalType": "bool",
                  "name": "resultDeclared",
                  "type": "bool"
                }
              ],
              "internalType": "struct Motify.ParticipantInfo[]",
              "name": "participants",
              "type": "tuple[]"
            }
          ],
          "internalType": "struct Motify.ChallengeDetail",
          "name": "",
          "type": "tuple"
        }
      ],
      "stateMutability": "view",
      "type": "function"
    },
    {
      "inputs": [
        {
          "internalType": "address",
          "name": "_participant",
          "type": "address"
        }
      ],
      "name": "getChallengesForParticipant",
      "outputs": [
        {
          "components": [
            {
              "internalType": "uint256",
              "name": "challengeId",
              "type": "uint256"
            },
            {
              "internalType": "address",
              "name": "recipient",
              "type": "address"
            },
            {
              "internalType": "uint256",
              "name": "startTime",
              "type": "uint256"
            },
            {
              "internalType": "uint256",
              "name": "endTime",
              "type": "uint256"
            },
            {
              "internalType": "bool",
              "name": "isPrivate",
              "type": "bool"
            },
            {
              "internalType": "string",
              "name": "name",
              "type": "string"
            },
            {
              "internalType": "string",
              "name": "apiType",
              "type": "string"
            },
            {
              "internalType": "string",
              "name": "goalType",
              "type": "string"
            },
            {
              "internalType": "uint256",
              "name": "goalAmount",
              "type": "uint256"
            },
            {
              "internalType": "string",
              "name": "description",
              "type": "string"
            },
            {
              "internalType": "uint256",
              "name": "totalDonationAmount",
              "type": "uint256"
            },
            {
              "internalType": "bool",
              "name": "resultsFinalized",
              "type": "bool"
            },
            {
              "internalType": "uint256",
              "name": "participantCount",
              "type": "uint256"
            }
          ],
          "internalType": "struct Motify.ChallengeInfo[]",
          "name": "",
          "type": "tuple[]"
        }
      ],
      "stateMutability": "view",
      "type": "function"
    },
    {
      "inputs": [
        {
          "internalType": "uint256",
          "name": "_challengeId",
          "type": "uint256"
        },
        {
          "internalType": "address",
          "name": "_participant",
          "type": "address"
        }
      ],
      "name": "getParticipantInfo",
      "outputs": [
        {
          "components": [
            {
              "internalType": "address",
              "name": "participantAddress",
              "type": "address"
            },
            {
              "internalType": "uint256",
              "name": "initialAmount",
              "type": "uint256"
            },
            {
              "internalType": "uint256",
              "name": "amount",
              "type": "uint256"
            },
            {
              "internalType": "uint256",
              "name": "refundPercentage",
              "type": "uint256"
            },
            {
              "internalType": "bool",
              "name": "resultDeclared",
              "type": "bool"
            }
          ],
          "internalType": "struct Motify.ParticipantInfo",
          "name": "",
          "type": "tuple"
        }
      ],
      "stateMutability": "view",
      "type": "function"
    },
    {
      "inputs": [
        {
          "internalType": "uint256",
          "name": "_challengeId",
          "type": "uint256"
        },
        {
          "internalType": "uint256",
          "name": "_stakeAmount",
          "type": "uint256"
        }
      ],
      "name": "joinChallenge",
      "outputs": [],
      "stateMutability": "nonpayable",
      "type": "function"
    },
    {
      "inputs": [],
      "name": "motifyToken",
      "outputs": [
        {
          "internalType": "contract IMotifyToken",
          "name": "",
          "type": "address"
        }
      ],
      "stateMutability": "view",
      "type": "function"
    },
    {
      "inputs": [],
      "name": "nextChallengeId",
      "outputs": [
        {
          "internalType": "uint256",
          "name": "",
          "type": "uint256"
        }
      ],
      "stateMutability": "view",
      "type": "function"
    },
    {
      "inputs": [],
      "name": "owner",
      "outputs": [
        {
          "internalType": "address",
          "name": "",
          "type": "address"
        }
      ],
      "stateMutability": "view",
      "type": "function"
    },
    {
      "inputs": [
        {
          "internalType": "address",
          "name": "_tokenAddress",
          "type": "address"
        }
      ],
      "name": "setTokenAddress",
      "outputs": [],
      "stateMutability": "nonpayable",
      "type": "function"
    },
    {
      "inputs": [],
      "name": "usdc",
      "outputs": [
        {
          "internalType": "contract IERC20",
          "name": "",
          "type": "address"
        }
      ],
      "stateMutability": "view",
      "type": "function"
    },
    {
      "inputs": [
        {
          "internalType": "address",
          "name": "",
          "type": "address"
        },
        {
          "internalType": "uint256",
          "name": "",
          "type": "uint256"
        }
      ],
      "name": "userChallenges",
      "outputs": [
        {
          "internalType": "uint256",
          "name": "",
          "type": "uint256"
        }
      ],
      "stateMutability": "view",
      "type": "function"
    },
    {
      "inputs": [
        {
          "internalType": "address",
          "name": "_to",
          "type": "address"
        }
      ],
      "name": "withdrawFees",
      "outputs": [],
      "stateMutability": "nonpayable",
      "type": "function"
    }
  ],
  "bytecode": "0x60a0346100ee57601f62002a6838819003918201601f19168301916001600160401b038311848410176100f3578084926020946040528339810103126100ee57516001600160a01b038116908190036100ee5780156100a957600180546001600160a01b0319163317905560805260405161295e90816200010a8239608051818181610e790152818161120701528181611c5901528181611e670152818161207601526121e00152f35b60405162461bcd60e51b815260206004820152601b60248201527f5553444320616464726573732063616e6e6f74206265207a65726f00000000006044820152606490fd5b600080fd5b634e487b7160e01b600052604160045260246000fdfe6080604052600436101561001257600080fd5b6000803560e01c8063126082cf14612280578063164e68de1461216b57806326a4e8d2146120a55780633e413bee146120605780635253b749146120445780635a382f051461203f5780635b7baf6414611e115780635b7f415c14611df557806367b2e1da14611dce5780638050111914611b385780638da5cb5b14611b0f5780638f1d3776146119ea5780639003adfe146119cc57806391f5800d14610fbf57806392376e131461164f57806399abff4b1461156f578063a525ad3c14611552578063a5ff0a13146114fc578063bd5dab121461111f578063c1419def14611103578063c142c2a514610fc4578063c32e0ef014610fbf578063cc9f3c5114610dd5578063cee7239314610c85578063db94a2c01461097c578063ddbcb5fa1461095e578063ec1afa47146101715763fc67aa501461015157600080fd5b3461016e578060031936011261016e576020600254604051908152f35b80fd5b503461016e5761014036600319011261016e5761018c61229d565b9060643515156064350361016e576084356001600160401b03811161095a576101b990369060040161260d565b9260a4356001600160401b038111610956576101d990369060040161260d565b60c4959195356001600160401b038111610952576101fb90369060040161260d565b610104929192356001600160401b03811161094e5761021e90369060040161260d565b939092610124356001600160401b03811161094a576102419036906004016125dd565b9a90966001600160a01b03891615610905574260243511156108c157602435604435111561087257600254996102768b612677565b6002558a8c52600460205260408c209960018060a01b03166bffffffffffffffffffffffff60a01b8b5416178a5560243560018b015560443560028b015560ff1960038b01541660ff6064351515161760038b01556001600160401b03821161085e5781906102e860048c01546122d6565b601f811161080d575b508c90601f83116001146107a1578d92610796575b50508160011b916000199060031b1c19161760048901555b6001600160401b03821161078257819061033b60058a01546122d6565b601f8111610731575b508a90601f83116001146106c5578b926106ba575b50508160011b916000199060031b1c19161760058701555b6001600160401b0382116106a657819061038e60068801546122d6565b601f8111610655575b508890601f83116001146105e95789926105de575b50508160011b916000199060031b1c19161760068501555b60e43560078501556001600160401b0382116105ca5781906103e960088601546122d6565b601f8111610579575b508690601f831160011461050d578792610502575b50508160011b916000199060031b1c19161760088301555b606435610457575b60208484807ffe366ed42e96da2650dfa7208b48ca7c04cf8da8d873216fca4d90f487784e406040519380a28152f35b84156104b15790600b01835b8581106104705750610427565b6104ac906001600160a01b0361048f61048a838a88612686565b612696565b16600052826020526040600020600160ff19825416179055612677565b610463565b60405162461bcd60e51b8152602060048201526024808201527f50726976617465206368616c6c656e6765206e65656473207061727469636970604482015263616e747360e01b6064820152608490fd5b013590503880610407565b60088601885260208820889450915b601f1984168510610561576001945083601f19811610610547575b505050811b01600883015561041f565b0135600019600384901b60f8161c19169055388080610537565b8181013583556020948501946001909301920161051c565b90915060088501875260208720601f840160051c8101602085106105c3575b90849392915b601f830160051c820181106105b45750506103f2565b6000815585945060010161059e565b5080610598565b634e487b7160e01b86526041600452602486fd5b0135905038806103ac565b600688018a5260208a208a9450915b601f198416851061063d576001945083601f19811610610623575b505050811b0160068501556103c4565b0135600019600384901b60f8161c19169055388080610613565b818101358355602094850194600190930192016105f8565b90915060068701895260208920601f840160051c81016020851061069f575b90849392915b601f830160051c82018110610690575050610397565b6000815585945060010161067a565b5080610674565b634e487b7160e01b88526041600452602488fd5b013590503880610359565b60058a018c5260208c208c9450915b601f1984168510610719576001945083601f198116106106ff575b505050811b016005870155610371565b0135600019600384901b60f8161c191690553880806106ef565b818101358355602094850194600190930192016106d4565b909150600589018b5260208b20601f840160051c81016020851061077b575b90849392915b601f830160051c8201811061076c575050610344565b60008155859450600101610756565b5080610750565b634e487b7160e01b8a52604160045260248afd5b013590503880610306565b60048c018e5260208e208e9450915b601f19841685106107f5576001945083601f198116106107db575b505050811b01600489015561031e565b0135600019600384901b60f8161c191690553880806107cb565b818101358355602094850194600190930192016107b0565b90915060048b018d5260208d20601f840160051c810160208510610857575b90849392915b601f830160051c820181106108485750506102f1565b60008155859450600101610832565b508061082c565b634e487b7160e01b8c52604160045260248cfd5b60405162461bcd60e51b815260206004820152602160248201527f456e642074696d65206d7573742062652061667465722073746172742074696d6044820152606560f81b6064820152608490fd5b606460405162461bcd60e51b815260206004820152602060248201527f53746172742074696d65206d75737420626520696e20746865206675747572656044820152fd5b60405162461bcd60e51b815260206004820152601960248201527f496e76616c696420726563697069656e742061646472657373000000000000006044820152606490fd5b8980fd5b8780fd5b8580fd5b8380fd5b5080fd5b503461016e578060031936011261016e576020604051620f42408152f35b503461016e57606036600319011261016e576001600160401b03602435818111610c81576109ae9036906004016125dd565b91604435908111610956576109c79036906004016125dd565b90916109de60018060a01b0360015416331461263a565b6004358552600460205260408520916109fd600284015442101561273f565b60ff601084015416610c2c57808503610bef57855b858110610a4457866004357fe3d2aa87920aacfdb60abc071e42cbf03fffae8e0c85b07bcb529307769e8e968280a280f35b610a4f818387612686565b35906127108211610baa576001600160a01b03610a7061048a838a88612686565b166000526009850160205260406000208054928315610b6d5760ff600383015416610b185783612710610aa683610afc976126c4565b0490610abf610ab583836122b3565b600c8b015461278b565b600c8a015581610b01575b50600183015560028201556003600160ff19828401541617910155610af2600f860154612677565b600f860155612677565b610a12565b610b10600d8a0191825461278b565b905538610aca565b60405162461bcd60e51b815260206004820152602760248201527f526573756c7420616c7265616479206465636c6172656420666f7220706172746044820152661a58da5c185b9d60ca1b6064820152608490fd5b60405162461bcd60e51b815260206004820152601560248201527414185c9d1a58da5c185b9d081b9bdd08199bdd5b99605a1b6044820152606490fd5b60405162461bcd60e51b815260206004820152601960248201527f496e76616c696420726566756e642070657263656e74616765000000000000006044820152606490fd5b60405162461bcd60e51b8152602060048201526015602482015274082e4e4c2f240d8cadccee8d040dad2e6dac2e8c6d605b1b6044820152606490fd5b60405162461bcd60e51b815260206004820152602760248201527f4368616c6c656e676520726573756c74732061726520616c72656164792066696044820152661b985b1a5e995960ca1b6064820152608490fd5b8280fd5b503461016e576020908160031936011261016e576001600160a01b039081610cab61229d565b1681526005928381526040822093845493610cc58561287b565b95845b868110610ce15760405180610cdd8a826124c3565b0390f35b80610d4786610cf3610dd09486612495565b919054600392831b1c91828b5260048252610d9b600860408d208a8154166001820154600283015460ff80978501541691600785015493600c8601549860108701541699600a8701549b6040519d8e612339565b8d528c015260408b015260608a015215156080890152610d6960048301612391565b60a0890152610d798d8301612391565b60c0890152610d8a60068301612391565b60e089015261010088015201612391565b6101208501526101408401521515610160830152610180820152610dbf828b612867565b52610dca818a612867565b50612677565b610cc8565b503461016e5760208060031936011261095a57600435908183526004815260408320336000526009810182526040600020600381019081549060ff8216610f7a57600284015462093a808101809111610f6657421115610f16578054948515610ec65750916001610e9d9594928882866127106002600d990155015560ff1916179055600f8101610e668154612677565b905501610e7482825461278b565b9055337f0000000000000000000000000000000000000000000000000000000000000000612798565b33907f3baacb0225fd7de59d1f8d54d9c51cc29eba21be9d5e4da6aefb8eb16cbca8438380a380f35b6084906040519062461bcd60e51b825260048201526024808201527f4e6f2066756e647320746f20636c61696d206f7220616c726561647920636c616044820152631a5b595960e21b6064820152fd5b60405162461bcd60e51b815260048101869052602260248201527f4465636c61726174696f6e20706572696f6420686173206e6f74206578706972604482015261195960f21b6064820152608490fd5b634e487b7160e01b88526011600452602488fd5b60405162461bcd60e51b815260048101869052601d60248201527f526573756c7473207765726520616c7265616479206465636c617265640000006044820152606490fd5b612477565b503461016e5760208060031936011261095a5760043560648111156110fd57506064905b6002908154928084106000146110f7575082915b6110058361287b565b936000198101908111865b8581106110255760405180610cdd89826124c3565b81610f66578061109061103b6110f293866122b3565b808b52600488528760408c206110c3600860018060a01b03835416926001810154938c8201549460ff958660038501541691600785015493600c8601549860108701541699600a8701549b6040519d8e612339565b8d528c015260408b015260608a0152151560808901526110b260048301612391565b60a0890152610d7960058301612391565b61012085015261014084015215156101608301526101808201526110e7828a612867565b52610dca8189612867565b611010565b91610ffc565b90610fe8565b503461016e578060031936011261016e57602060405160068152f35b503461016e57604036600319011261016e57600435906024918235818352602090600482526040842060018101544210156114b857620f424082106114845760ff60038201541661141e575b33600052600981018352604060002080546113e95785546040516370a0823160e01b81523360048201526001600160a01b039491869082908b90829089165afa801561138c5788906113b5575b662386f26fc100009150048181116113ae575b61122b6111d882846122b3565b604051906323b872dd60e01b89830152338c83015230604483015260648201526064815261120581612355565b7f00000000000000000000000000000000000000000000000000000000000000006126d7565b80158015611318575b5050808255600182015560028101869055600301805460ff19169055600a01805468010000000000000000939092909184841015611305578361127e916001600596018155612495565b819291549060031b9133831b921b191617905533855252604083208054918210156112f157906112b391600182018155612495565b81549060031b9083821b91600019901b191617905533907f690ecbabe96222b39728b512682860cc6460002a670ff94954038286bea0ba698380a380f35b5050634e487b7160e01b8252506041600452fd5b634e487b7160e01b875260416004528787fd5b61271080830292830414171561139b57611331906126aa565b8488541690813b1561139757604051632770a7eb60e21b815233600482015260248101919091529088908290604490829084905af1801561138c57908891156112345761137d90612310565b611388578638611234565b8680fd5b6040513d8a823e3d90fd5b8880fd5b634e487b7160e01b885260116004528888fd5b50806111cb565b508581813d83116113e2575b6113cb8183612370565b8101031261094e57662386f26fc1000090516111b8565b503d6113c1565b60405162461bcd60e51b815260048101859052600e818901526d105b1c9958591e481a9bda5b995960921b6044820152606490fd5b33600052600b8101835260ff6040600020541661116b5760405162461bcd60e51b8152600481018490526022818801527f4e6f742077686974656c697374656420666f722074686973206368616c6c656e604482015261676560f01b6064820152608490fd5b60405162461bcd60e51b815260048101849052600d818801526c42656c6f77206d696e696d756d60981b6044820152606490fd5b60405162461bcd60e51b815260048101849052601c818801527f43616e6e6f74206a6f696e2061667465722073746172742074696d65000000006044820152606490fd5b503461016e57604036600319011261016e5761151661229d565b6001600160a01b031681526005602052604081208054602435929083101561016e5760206115448484612495565b90546040519160031b1c8152f35b503461016e578060031936011261016e5760206040516103e88152f35b503461016e57604036600319011261016e57600435906024356001600160a01b038116919082900361164a57604060099160a0946115ab61283c565b506115b960025482106127d9565b815260046020522001816000526020526040600020805490600181015460ff600360028401549301541692604051946115f186612355565b85526020850152604084015260608301521515608082015261164860405180926080809160018060a01b03815116845260208101516020850152604081015160408501526060810151606085015201511515910152565bf35b600080fd5b503461016e57602036600319011261016e57606061018060405161167281612339565b83815283602082015283604082015283838201528360808201528260a08201528260c08201528260e08201528361010082015282610120820152836101408201528361016082015201526116cb600254600435106127d9565b600435815260046020526040812090600a8201546116e881612825565b906116f66040519283612370565b808252601f1961170582612825565b01835b8181106119b5575050825b81811061192d57505060018060a01b03835416926001810154906117bc600860028301549260ff600382015416600782015490600c8301549560ff601085015416976040519b6117628d612339565b6004358d5260208d015260408c015260608b0152151560808a015261178960048301612391565b60a08a015261179a60058301612391565b60c08a01526117ab60068301612391565b60e08a015261010089015201612391565b6101208601526101408501521515610160840152610180830152604051918291602083528151602084015260018060a01b03602083015116604084015260408201516060840152606082015160808401526080820151151560a084015260a0820151916101806118946118706118596118436101a0978860c08b01526101c08a0190612437565b60c0860151898203601f190160e08b0152612437565b60e0850151888203601f19016101008a0152612437565b610100840151610120880152610120840151601f1988830301610140890152612437565b91610140810151610160870152610160810151151582870152015192601f198583030190850152602080845192838152019301915b8181106118d7575050500390f35b91935091602060a08261191f60019488516080809160018060a01b03815116845260208101516020850152604081015160408501526060810151606085015201511515910152565b0194019101918493926118c9565b8061193e6119b092600a8801612495565b90549060039160018060a01b0391831b1c16908160005260098801602052604060002080549160ff600183015491600284015493015416926040519461198386612355565b8552602085015260408401526060830152151560808201526119a58286612867565b52610dca8185612867565b611713565b6020906119c061283c565b82828701015201611708565b503461016e578060031936011261016e576020600354604051908152f35b503461016e57602036600319011261016e576004358152600460205260409020600160a01b600190038154166001820154916002810154600382015460ff169160048101611a3790612391565b92611a4460058301612391565b93611a5160068401612391565b6007840154611a6260088601612391565b91600c86015497600d87015494600e88015496600f890154986010015460ff16996040519d8e809e81526020015260408d0152151560608c01526101c08060808d01528b01611ab091612437565b8a810360a08c0152611ac191612437565b89810360c08b0152611ad291612437565b9060e0890152878103610100890152611aea91612437565b9461012087015261014086015261016085015261018084015215156101a08301520390f35b503461016e578060031936011261016e576001546040516001600160a01b039091168152602090f35b503461016e57602036600319011261016e5760043590818152600460205260408120916002830154611b6c8142101561273f565b60108401805460ff8116611d7b57600f860154600a87015403611d36576001546001600160a01b03939084163303611cc8575b5060019060ff1916179055600c840154908115948515611be4575b5050507fcc87dbb9a1a3aeaafb703845978f6957501fa1177c6a1226267c6c8276f8ee3f8280a280f35b6103e89586840296848804141715611cb45761271080960495611c158760011c97611c0f89826122b3565b956122b3565b600d83015490949015611c9b57818102918183041490151715611c8757611c7d949596611c44611c52926126aa565b600e8401555b60035461278b565b60035554167f0000000000000000000000000000000000000000000000000000000000000000612798565b8190388080611bba565b634e487b7160e01b86526011600452602486fd5b611c529150611caf90611c7d96979861278b565b611c4a565b634e487b7160e01b85526011600452602485fd5b62093a808101809111611c8757421115611ce25738611b9f565b60405162461bcd60e51b815260206004820152602660248201527f4f6e6c79206f776e65722063616e2066696e616c697a65206265666f726520746044820152651a5b595bdd5d60d21b6064820152608490fd5b60405162461bcd60e51b815260206004820152601860248201527f4e6f7420616c6c20726573756c7473206465636c6172656400000000000000006044820152606490fd5b60405162461bcd60e51b815260206004820152602560248201527f446f6e6174696f6e73206861766520616c7265616479206265656e2070726f63604482015264195cdcd95960da1b6064820152608490fd5b503461016e578060031936011261016e57546040516001600160a01b039091168152602090f35b503461016e578060031936011261016e57602060405160128152f35b503461016e576020908160031936011261016e5760043591828252600481526040822090338352600982018152604083209060ff60038301541615611ffb57600182018054908115611fa8579085611e8b9255337f0000000000000000000000000000000000000000000000000000000000000000612798565b60ff60108401541615611f645750600d820154918215918215611ed3575b8433877fd86f3d2d747d5d831df461fda7bf64b7d9d57ff4b8b3fe58836776cf90a6bda58380a380f35b54600e90910154611ee3916126c4565b90611f505782546001600160a01b031690813b15610956576040516340c10f1960e01b8152336004820152929004602483015282908290604490829084905af18015611f4557611f36575b808080611ea9565b611f3f90612310565b38611f2e565b6040513d84823e3d90fd5b634e487b7160e01b83526012600452602483fd5b6064906040519062461bcd60e51b82526004820152601760248201527f4368616c6c656e6765206e6f742066696e616c697a65640000000000000000006044820152fd5b60405162461bcd60e51b815260048101849052602560248201527f4e6f20726566756e6420746f20636c61696d206f7220616c726561647920636c604482015264185a5b595960da1b6064820152608490fd5b6064906040519062461bcd60e51b82526004820152601860248201527f526573756c7473206e6f7420796574206465636c6172656400000000000000006044820152fd5b612280565b503461016e578060031936011261016e576020604051600c8152f35b503461016e578060031936011261016e576040517f00000000000000000000000000000000000000000000000000000000000000006001600160a01b03168152602090f35b503461016e57602036600319011261016e576120bf61229d565b6001546001600160a01b039182916120da908316331461263a565b1690811561212e5782549081166120fb576001600160a01b03191617815580f35b60405162461bcd60e51b815260206004820152600b60248201526a105b1c9958591e481cd95d60aa1b6044820152606490fd5b60405162461bcd60e51b8152602060048201526015602482015274496e76616c696420746f6b656e206164647265737360581b6044820152606490fd5b503461016e57602036600319011261016e5761218561229d565b6001546001600160a01b039061219e908216331461263a565b81169081156122495760035490811561220e57816122047fc0819c13be868895eb93e40eaceb96de976442fa1d404e5c55f14bb65a8c489a93602093876003557f0000000000000000000000000000000000000000000000000000000000000000612798565b604051908152a280f35b60405162461bcd60e51b81526020600482015260136024820152724e6f206665657320746f20776974686472617760681b6044820152606490fd5b60405162461bcd60e51b815260206004820152600f60248201526e496e76616c6964206164647265737360881b6044820152606490fd5b3461164a57600036600319011261164a5760206040516127108152f35b600435906001600160a01b038216820361164a57565b919082039182116122c057565b634e487b7160e01b600052601160045260246000fd5b90600182811c92168015612306575b60208310146122f057565b634e487b7160e01b600052602260045260246000fd5b91607f16916122e5565b6001600160401b03811161232357604052565b634e487b7160e01b600052604160045260246000fd5b6101a081019081106001600160401b0382111761232357604052565b60a081019081106001600160401b0382111761232357604052565b90601f801991011681019081106001600160401b0382111761232357604052565b90604051918260008254926123a5846122d6565b90818452600194858116908160001461241457506001146123d1575b50506123cf92500383612370565b565b9093915060005260209081600020936000915b8183106123fc5750506123cf935082010138806123c1565b855488840185015294850194879450918301916123e4565b9150506123cf94506020925060ff191682840152151560051b82010138806123c1565b919082519283825260005b848110612463575050826000602080949584010152601f8019910116010190565b602081830181015184830182015201612442565b3461164a57600036600319011261164a57602060405162093a808152f35b80548210156124ad5760005260206000200190600090565b634e487b7160e01b600052603260045260246000fd5b602080820190808352835180925260409283810182858560051b8401019601946000925b8584106124f8575050505050505090565b909192939495968580600192603f198582030187528a519081518152848060a01b038383015116838201528682015187820152606080830151908201526080808301511515908201526125a961258a61257761256460a080870151906101a08091880152860190612437565b60c0808701519086830390870152612437565b60e0808601519085830390860152612437565b6101008085015190840152610120808501519084830390850152612437565b91610140808201519083015261016080820151151590830152610180809101519101529901940194019295949391906124e7565b9181601f8401121561164a578235916001600160401b03831161164a576020808501948460051b01011161164a57565b9181601f8401121561164a578235916001600160401b03831161164a576020838186019501011161164a57565b1561264157565b60405162461bcd60e51b815260206004820152600e60248201526d139bdd08185d5d1a1bdc9a5e995960921b6044820152606490fd5b60001981146122c05760010190565b91908110156124ad5760051b0190565b356001600160a01b038116810361164a5790565b9064e8d4a51000918281029281840414901517156122c057565b818102929181159184041417156122c057565b906000602091828151910182855af115612733576000513d61272a57506001600160a01b0381163b155b6127085750565b604051635274afe760e01b81526001600160a01b039091166004820152602490fd5b60011415612701565b6040513d6000823e3d90fd5b1561274657565b60405162461bcd60e51b815260206004820152601760248201527f4368616c6c656e6765206e6f7420656e646564207965740000000000000000006044820152606490fd5b919082018092116122c057565b60405163a9059cbb60e01b60208201526001600160a01b039290921660248301526044808301939093529181526123cf916127d4606483612370565b6126d7565b156127e057565b60405162461bcd60e51b815260206004820152601860248201527f4368616c6c656e676520646f6573206e6f7420657869737400000000000000006044820152606490fd5b6001600160401b0381116123235760051b60200190565b6040519061284982612355565b60006080838281528260208201528260408201528260608201520152565b80518210156124ad5760209160051b010190565b9061288582612825565b60409061289482519182612370565b83815280936128a5601f1991612825565b019160005b8381106128b75750505050565b60209082516128c581612339565b60008152826000818301526000858301526060600081840152600060808401528060a08401528060c08401528060e084015260006101008401526101208301526000610140830152600061016083015260006101808301528286010152016128aa56fea26469706673582212207bf02d88319279c11a6614bacdf07d2fb2d27f0ca7ffed05fe4982ed0695f56164736f6c63430008140033",
  "linkReferences": {},
  "deployedLinkReferences": {}
}